{
  "transactions": [
    {
      "hash": "0x3bd9b534b7babd2a13f4153de2359056f7255c30ca59e1ba8945ea56ff2a3df9",
      "transactionType": "CALL",
      "contractName": null,
      "contractAddress": "0x4f9f184a7f06ebe299dde44064f58151abbd134f",
      "function": "withdraw(address)",
      "arguments": [
        "0xA0F7Ae56E24A269f71BBF1BF3DeB5b1E741492C9"
      ],
      "transaction": {
        "from": "0x1fd4e198baf6e6d035eb065ec154c91ac73f5b75",
        "to": "0x4f9f184a7f06ebe299dde44064f58151abbd134f",
        "gas": "0x11719",
        "value": "0x0",
        "input": "0x51cff8d9000000000000000000000000a0f7ae56e24a269f71bbf1bf3deb5b1e741492c9",
        "nonce": "0x3b",
        "chainId": "0x66eee"
      },
      "additionalContracts": [],
      "isFixedGasLimit": false
    }
  ],
  "receipts": [
    {
      "status": "0x1",
      "cumulativeGasUsed": "0xb04e",
      "logs": [
        {
          "address": "0xa0f7ae56e24a269f71bbf1bf3deb5b1e741492c9",
          "topics": [
            "0xddf252ad1be2c89b69c2b068fc378daa952ba7f163c4a11628f55a4df523b3ef",
            "0x0000000000000000000000004f9f184a7f06ebe299dde44064f58151abbd134f",
            "0x0000000000000000000000001fd4e198baf6e6d035eb065ec154c91ac73f5b75"
          ],
          "data": "0x0000000000000000000000000000000000000000000000001bc16d674ec80000",
          "blockHash": "0xe7b9d67a42d0d0a1314dd3b9bef15ccc3f486ce460f67a859fe75acc1129ae84",
          "blockNumber": "0x773d8ce",
          "transactionHash": "0x3bd9b534b7babd2a13f4153de2359056f7255c30ca59e1ba8945ea56ff2a3df9",
          "transactionIndex": "0x1",
          "logIndex": "0x0",
          "removed": false
        },
        {
          "address": "0x4f9f184a7f06ebe299dde44064f58151abbd134f",
          "topics": [
            "0x9b1bfa7fa9ee420a16e124f794c35ac9f90472acc99140eb2f6447c714cad8eb"
          ],
          "data": "0x0000000000000000000000001fd4e198baf6e6d035eb065ec154c91ac73f5b75000000000000000000000000a0f7ae56e24a269f71bbf1bf3deb5b1e741492c90000000000000000000000000000000000000000000000001bc16d674ec80000",
          "blockHash": "0xe7b9d67a42d0d0a1314dd3b9bef15ccc3f486ce460f67a859fe75acc1129ae84",
          "blockNumber": "0x773d8ce",
          "transactionHash": "0x3bd9b534b7babd2a13f4153de2359056f7255c30ca59e1ba8945ea56ff2a3df9",
          "transactionIndex": "0x1",
          "logIndex": "0x1",
          "removed": false
        }
      ],
      "logsBloom": "0x00000000020000000000000000000000000000000000000000000000000000000000000000000000000000000000000000000000000000000000000000000000000000000000000000000008041000000000000000000000000000000000000000000000000000000000000000000000000000080000000000000010400000000010004000000000000000000000000000000000000000000000000000000000000000000000400000000000000000000000000000000000000020000004000008000002000000000000000000000000000010000008000001000000000000000000000000000000000000000000000000000000000000008000000000000000",
      "type": "0x2",
      "transactionHash": "0x3bd9b534b7babd2a13f4153de2359056f7255c30ca59e1ba8945ea56ff2a3df9",
      "transactionIndex": "0x1",
      "blockHash": "0xe7b9d67a42d0d0a1314dd3b9bef15ccc3f486ce460f67a859fe75acc1129ae84",
      "blockNumber": "0x773d8ce",
      "gasUsed": "0xb04e",
      "effectiveGasPrice": "0x5f5e100",
      "from": "0x1fd4e198baf6e6d035eb065ec154c91ac73f5b75",
      "to": "0x4f9f184a7f06ebe299dde44064f58151abbd134f",
      "contractAddress": null,
      "gasUsedForL1": "0x0",
      "l1BlockNumber": "0x76092f"
    }
  ],
  "libraries": [],
  "pending": [],
  "returns": {},
  "timestamp": 1739904218,
  "chain": 421614,
  "commit": "05b6e60"
}