{
  "transactions": [
    {
      "hash": "0x6013d770198c06aea44916ebc7386e75d89967f96583750c6a96ca5227fb3a57",
      "transactionType": "CALL",
      "contractName": null,
      "contractAddress": "0x397411cd0dd9156ade29fe8f65160cf402df5e5c",
      "function": "withdraw(address)",
      "arguments": [
        "0xaf88d065e77c8cC2239327C5EDb3A432268e5831"
      ],
      "transaction": {
        "from": "0x1fd4e198baf6e6d035eb065ec154c91ac73f5b75",
        "to": "0x397411cd0dd9156ade29fe8f65160cf402df5e5c",
        "gas": "0x16625",
        "value": "0x0",
        "input": "0x51cff8d9000000000000000000000000af88d065e77c8cc2239327c5edb3a432268e5831",
        "nonce": "0x92da",
        "chainId": "0xa4b1"
      },
      "additionalContracts": [],
      "isFixedGasLimit": false
    }
  ],
  "receipts": [
    {
      "status": "0x1",
      "cumulativeGasUsed": "0x169ab",
      "logs": [
        {
          "address": "0xaf88d065e77c8cc2239327c5edb3a432268e5831",
          "topics": [
            "0xddf252ad1be2c89b69c2b068fc378daa952ba7f163c4a11628f55a4df523b3ef",
            "0x000000000000000000000000397411cd0dd9156ade29fe8f65160cf402df5e5c",
            "0x0000000000000000000000001fd4e198baf6e6d035eb065ec154c91ac73f5b75"
          ],
          "data": "0x00000000000000000000000000000000000000000000000000000000000f4240",
          "blockHash": "0x394d00c6fdb41258237036fc6ddd88d56981f61f259f02272e1792d1124acd90",
          "blockNumber": "0x126fd577",
          "transactionHash": "0x6013d770198c06aea44916ebc7386e75d89967f96583750c6a96ca5227fb3a57",
          "transactionIndex": "0x2",
          "logIndex": "0x1",
          "removed": false
        },
        {
          "address": "0x397411cd0dd9156ade29fe8f65160cf402df5e5c",
          "topics": [
            "0x9b1bfa7fa9ee420a16e124f794c35ac9f90472acc99140eb2f6447c714cad8eb"
          ],
          "data": "0x0000000000000000000000001fd4e198baf6e6d035eb065ec154c91ac73f5b75000000000000000000000000af88d065e77c8cc2239327c5edb3a432268e583100000000000000000000000000000000000000000000000000000000000f4240",
          "blockHash": "0x394d00c6fdb41258237036fc6ddd88d56981f61f259f02272e1792d1124acd90",
          "blockNumber": "0x126fd577",
          "transactionHash": "0x6013d770198c06aea44916ebc7386e75d89967f96583750c6a96ca5227fb3a57",
          "transactionIndex": "0x2",
          "logIndex": "0x2",
          "removed": false
        }
      ],
      "logsBloom": "0x00000000020000000000000000000000000000000000000000000000000000000000000000000000000000000000000000000001000000000000000000000000000200000000000000000008040000000000000000000000000000000000000000000000000000000000000001000000000000000000000000000010400000000000004000000000000000000000000000000800000000000000000000000000000000000000400000000000000000000000000000000000000000000001000000002002000000000000000000000000000000000000000000000000000008000000000010000000000000000000200000000000000000008000000000000000",
      "type": "0x2",
      "transactionHash": "0x6013d770198c06aea44916ebc7386e75d89967f96583750c6a96ca5227fb3a57",
      "transactionIndex": "0x2",
      "blockHash": "0x394d00c6fdb41258237036fc6ddd88d56981f61f259f02272e1792d1124acd90",
      "blockNumber": "0x126fd577",
      "gasUsed": "0xd466",
      "effectiveGasPrice": "0x989680",
      "from": "0x1fd4e198baf6e6d035eb065ec154c91ac73f5b75",
      "to": "0x397411cd0dd9156ade29fe8f65160cf402df5e5c",
      "contractAddress": null
    }
  ],
  "libraries": [],
  "pending": [],
  "returns": {},
  "timestamp": 1740378708,
  "chain": 42161,
  "commit": "4e93677"
}