{
  "deployments": [
    {
      "transactions": [
        {
          "hash": "0xef039dfaca32b92ae4fb7a93279e05b3766e7194dc5dcdd40e1ad8c77a9eedd7",
          "transactionType": "CALL",
          "contractName": null,
          "contractAddress": "0xa0f7ae56e24a269f71bbf1bf3deb5b1e741492c9",
          "function": "approve(address,uint256)",
          "arguments": [
            "0x4F9F184A7f06eBE299dde44064f58151aBBd134f",
            "1000000000000000000"
          ],
          "transaction": {
            "from": "0x1fd4e198baf6e6d035eb065ec154c91ac73f5b75",
            "to": "0xa0f7ae56e24a269f71bbf1bf3deb5b1e741492c9",
            "gas": "0xec52",
            "value": "0x0",
            "input": "0x095ea7b30000000000000000000000004f9f184a7f06ebe299dde44064f58151abbd134f0000000000000000000000000000000000000000000000000de0b6b3a7640000",
            "nonce": "0x3c",
            "chainId": "0x66eee"
          },
          "additionalContracts": [],
          "isFixedGasLimit": false
        },
        {
          "hash": null,
          "transactionType": "CALL",
          "contractName": null,
          "contractAddress": "0x4f9f184a7f06ebe299dde44064f58151abbd134f",
          "function": "deposit(bytes,address,(address,address,address,address,address,uint256,uint256,uint256,uint256,uint32,uint32,uint16),bytes)",
          "arguments": [
            "0x",
            "0x0000000000000000000000000000000000000000",
            "(0x1Fd4e198bAF6e6d035eB065Ec154c91AC73F5b75, 0x1Fd4e198bAF6e6d035eB065Ec154c91AC73F5b75, 0xA0F7Ae56E24A269f71BBF1BF3DeB5b1E741492C9, 0x6e56e17a9Ac93bd42F5C02613D24025327d0497E, 0x0000000000000000000000000000000000000000, 1000000000000000000, 1000000000000000000, 1739904501, 1739911801, 40231, 40161, 0)",
            "0x"
          ],
          "transaction": {
            "from": "0x1fd4e198baf6e6d035eb065ec154c91ac73f5b75",
            "to": "0x4f9f184a7f06ebe299dde44064f58151abbd134f",
            "gas": "0x5fdf3",
            "value": "0x0",
            "input": "0xe41d318f00000000000000000000000000000000000000000000000000000000000001e000000000000000000000000000000000000000000000000000000000000000000000000000000000000000001fd4e198baf6e6d035eb065ec154c91ac73f5b750000000000000000000000001fd4e198baf6e6d035eb065ec154c91ac73f5b75000000000000000000000000a0f7ae56e24a269f71bbf1bf3deb5b1e741492c90000000000000000000000006e56e17a9ac93bd42f5c02613d24025327d0497e00000000000000000000000000000000000000000000000000000000000000000000000000000000000000000000000000000000000000000de0b6b3a76400000000000000000000000000000000000000000000000000000de0b6b3a76400000000000000000000000000000000000000000000000000000000000067b4d5f50000000000000000000000000000000000000000000000000000000067b4f2790000000000000000000000000000000000000000000000000000000000009d270000000000000000000000000000000000000000000000000000000000009ce10000000000000000000000000000000000000000000000000000000000000000000000000000000000000000000000000000000000000000000000000000020000000000000000000000000000000000000000000000000000000000000000000000000000000000000000000000000000000000000000000000000000000000",
            "nonce": "0x3d",
            "chainId": "0x66eee"
          },
          "additionalContracts": [],
          "isFixedGasLimit": false
        }
      ],
      "receipts": [
        {
          "status": "0x1",
          "cumulativeGasUsed": "0xb44b",
          "logs": [
            {
              "address": "0xa0f7ae56e24a269f71bbf1bf3deb5b1e741492c9",
              "topics": [
                "0x8c5be1e5ebec7d5bd14f71427d1e84f3dd0314c0f7b2291e5b200ac8c7c3b925",
                "0x0000000000000000000000001fd4e198baf6e6d035eb065ec154c91ac73f5b75",
                "0x0000000000000000000000004f9f184a7f06ebe299dde44064f58151abbd134f"
              ],
              "data": "0x0000000000000000000000000000000000000000000000000de0b6b3a7640000",
              "blockHash": "0x7fd5c084438606e34bf39268fd7cb0c22f4f83c019fe6e37b530ef542182c06c",
              "blockNumber": "0x773de04",
              "transactionHash": "0xef039dfaca32b92ae4fb7a93279e05b3766e7194dc5dcdd40e1ad8c77a9eedd7",
              "transactionIndex": "0x1",
              "logIndex": "0x0",
              "removed": false
            }
          ],
          "logsBloom": "0x00000000020000000000000000000000000000000000000000000000000000000000000000000000000000000000000000000000000000000000000000200000000000000000000000000000041000000000000000000000000000000000000000000000000000000000000000000000000000000000000000000000000000000010004000000000000000000000000000000000000000000000000000000000020000000000000000000000000000000000000000000000000020000004000000000000000000000000000000000000000000000008000001000000000000000010000000000000000000000000000000000000000000000000000000000000",
          "type": "0x2",
          "transactionHash": "0xef039dfaca32b92ae4fb7a93279e05b3766e7194dc5dcdd40e1ad8c77a9eedd7",
          "transactionIndex": "0x1",
          "blockHash": "0x7fd5c084438606e34bf39268fd7cb0c22f4f83c019fe6e37b530ef542182c06c",
          "blockNumber": "0x773de04",
          "gasUsed": "0xb44b",
          "effectiveGasPrice": "0x5f5e100",
          "from": "0x1fd4e198baf6e6d035eb065ec154c91ac73f5b75",
          "to": "0xa0f7ae56e24a269f71bbf1bf3deb5b1e741492c9",
          "contractAddress": null,
          "gasUsedForL1": "0x0",
          "l1BlockNumber": "0x760950"
        }
      ],
      "libraries": [],
      "pending": [],
      "returns": {},
      "timestamp": 1739904618,
      "chain": 421614,
      "commit": "05b6e60"
    },
    {
      "transactions": [
        {
          "hash": null,
          "transactionType": "CALL",
          "contractName": null,
          "contractAddress": "0x6e56e17a9ac93bd42f5c02613d24025327d0497e",
          "function": "mint(address,uint256)",
          "arguments": [
            "0xf488bA1fe8b0523E863ddA6a5f7d19F2bAC00188",
            "100000000000000000000"
          ],
          "transaction": {
            "from": "0xf488ba1fe8b0523e863dda6a5f7d19f2bac00188",
            "to": "0x6e56e17a9ac93bd42f5c02613d24025327d0497e",
            "gas": "0x12483",
            "value": "0x0",
            "input": "0x40c10f19000000000000000000000000f488ba1fe8b0523e863dda6a5f7d19f2bac001880000000000000000000000000000000000000000000000056bc75e2d63100000",
            "nonce": "0x0",
            "chainId": "0xaa36a7"
          },
          "additionalContracts": [],
          "isFixedGasLimit": false
        },
        {
          "hash": null,
          "transactionType": "CALL",
          "contractName": null,
          "contractAddress": "0x6e56e17a9ac93bd42f5c02613d24025327d0497e",
          "function": "approve(address,uint256)",
          "arguments": [
            "0x5E155644e7C78503637B4440F9a02FDC3be254dF",
            "100000000000000000000"
          ],
          "transaction": {
            "from": "0xf488ba1fe8b0523e863dda6a5f7d19f2bac00188",
            "to": "0x6e56e17a9ac93bd42f5c02613d24025327d0497e",
            "gas": "0xf917",
            "value": "0x0",
            "input": "0x095ea7b30000000000000000000000005e155644e7c78503637b4440f9a02fdc3be254df0000000000000000000000000000000000000000000000056bc75e2d63100000",
            "nonce": "0x1",
            "chainId": "0xaa36a7"
          },
          "additionalContracts": [],
          "isFixedGasLimit": false
        },
        {
          "hash": null,
          "transactionType": "CALL",
          "contractName": null,
          "contractAddress": "0x5e155644e7c78503637b4440f9a02fdc3be254df",
          "function": "fill(bytes,address,(address,address,address,address,address,uint256,uint256,uint256,uint256,uint32,uint32,uint16))",
          "arguments": [
            "0x",
            "0x0000000000000000000000000000000000000000",
            "(0x1Fd4e198bAF6e6d035eB065Ec154c91AC73F5b75, 0x1Fd4e198bAF6e6d035eB065Ec154c91AC73F5b75, 0xA0F7Ae56E24A269f71BBF1BF3DeB5b1E741492C9, 0x6e56e17a9Ac93bd42F5C02613D24025327d0497E, 0x0000000000000000000000000000000000000000, 1000000000000000000, 1000000000000000000, 1739904501, 1739911801, 40231, 40161, 0)"
          ],
          "transaction": {
            "from": "0xf488ba1fe8b0523e863dda6a5f7d19f2bac00188",
            "to": "0x5e155644e7c78503637b4440f9a02fdc3be254df",
            "gas": "0x2e8a8",
            "value": "0x0",
            "input": "0x4011625600000000000000000000000000000000000000000000000000000000000001c000000000000000000000000000000000000000000000000000000000000000000000000000000000000000001fd4e198baf6e6d035eb065ec154c91ac73f5b750000000000000000000000001fd4e198baf6e6d035eb065ec154c91ac73f5b75000000000000000000000000a0f7ae56e24a269f71bbf1bf3deb5b1e741492c90000000000000000000000006e56e17a9ac93bd42f5c02613d24025327d0497e00000000000000000000000000000000000000000000000000000000000000000000000000000000000000000000000000000000000000000de0b6b3a76400000000000000000000000000000000000000000000000000000de0b6b3a76400000000000000000000000000000000000000000000000000000000000067b4d5f50000000000000000000000000000000000000000000000000000000067b4f2790000000000000000000000000000000000000000000000000000000000009d270000000000000000000000000000000000000000000000000000000000009ce100000000000000000000000000000000000000000000000000000000000000000000000000000000000000000000000000000000000000000000000000000000",
            "nonce": "0x2",
            "chainId": "0xaa36a7"
          },
          "additionalContracts": [],
          "isFixedGasLimit": false
        },
        {
          "hash": null,
          "transactionType": "CALL",
          "contractName": null,
          "contractAddress": "0x5e155644e7c78503637b4440f9a02fdc3be254df",
          "function": "settle(uint32,address,bytes)",
          "arguments": [
            "40231",
            "0xf488bA1fe8b0523E863ddA6a5f7d19F2bAC00188",
            "0x00030100110100000000000000000000000000030d40"
          ],
          "transaction": {
            "from": "0xf488ba1fe8b0523e863dda6a5f7d19f2bac00188",
            "to": "0x5e155644e7c78503637b4440f9a02fdc3be254df",
            "gas": "0x52162",
            "value": "0x16345785d8a0000",
            "input": "0x2c85455b0000000000000000000000000000000000000000000000000000000000009d27000000000000000000000000f488ba1fe8b0523e863dda6a5f7d19f2bac001880000000000000000000000000000000000000000000000000000000000000060000000000000000000000000000000000000000000000000000000000000001600030100110100000000000000000000000000030d4000000000000000000000",
            "nonce": "0x3",
            "chainId": "0xaa36a7"
          },
          "additionalContracts": [],
          "isFixedGasLimit": false
        }
      ],
      "receipts": [],
      "libraries": [],
      "pending": [],
      "returns": {},
      "timestamp": 1739904618,
      "chain": 11155111,
      "commit": "05b6e60"
    }
  ],
  "timestamp": 1739904620
}