{
  "transactions": [
    {
      "hash": "0x8540de949a71834c7655a5309a606409ab0137e9204c1b6541be745a3918c25a",
      "transactionType": "CALL",
      "contractName": null,
      "contractAddress": "0x4f9f184a7f06ebe299dde44064f58151abbd134f",
      "function": "withdraw(address)",
      "arguments": [
        "0xA0F7Ae56E24A269f71BBF1BF3DeB5b1E741492C9"
      ],
      "transaction": {
        "from": "0xf488ba1fe8b0523e863dda6a5f7d19f2bac00188",
        "to": "0x4f9f184a7f06ebe299dde44064f58151abbd134f",
        "gas": "0x17151",
        "value": "0x0",
        "input": "0x51cff8d9000000000000000000000000a0f7ae56e24a269f71bbf1bf3deb5b1e741492c9",
        "nonce": "0x0",
        "chainId": "0x66eee"
      },
      "additionalContracts": [],
      "isFixedGasLimit": false
    }
  ],
  "receipts": [
    {
      "status": "0x1",
      "cumulativeGasUsed": "0x28afc",
      "logs": [
        {
          "address": "0xa0f7ae56e24a269f71bbf1bf3deb5b1e741492c9",
          "topics": [
            "0xddf252ad1be2c89b69c2b068fc378daa952ba7f163c4a11628f55a4df523b3ef",
            "0x0000000000000000000000004f9f184a7f06ebe299dde44064f58151abbd134f",
            "0x000000000000000000000000f488ba1fe8b0523e863dda6a5f7d19f2bac00188"
          ],
          "data": "0x0000000000000000000000000000000000000000000000000de0b6b3a7640000",
          "blockHash": "0x8969d10a26ee35bb6af4b4af6679a7d133ef2b235beee5510d65d20f28336f94",
          "blockNumber": "0x773f299",
          "transactionHash": "0x8540de949a71834c7655a5309a606409ab0137e9204c1b6541be745a3918c25a",
          "transactionIndex": "0x2",
          "logIndex": "0x3",
          "removed": false
        },
        {
          "address": "0x4f9f184a7f06ebe299dde44064f58151abbd134f",
          "topics": [
            "0x9b1bfa7fa9ee420a16e124f794c35ac9f90472acc99140eb2f6447c714cad8eb"
          ],
          "data": "0x000000000000000000000000f488ba1fe8b0523e863dda6a5f7d19f2bac00188000000000000000000000000a0f7ae56e24a269f71bbf1bf3deb5b1e741492c90000000000000000000000000000000000000000000000000de0b6b3a7640000",
          "blockHash": "0x8969d10a26ee35bb6af4b4af6679a7d133ef2b235beee5510d65d20f28336f94",
          "blockNumber": "0x773f299",
          "transactionHash": "0x8540de949a71834c7655a5309a606409ab0137e9204c1b6541be745a3918c25a",
          "transactionIndex": "0x2",
          "logIndex": "0x4",
          "removed": false
        }
      ],
      "logsBloom": "0x00000000000000000000000000000000000000000000000000000000000000000000000000000000000000000000000000000000000000000000000000000000000000000000000000000008001000000000000000000000400000000000000000000000000000000000000000000000000000080000000000000010400000000010000000000000000000000000000000000000000000000000000000000000000000000000400000000000000000000000001000000000000020000004000008000002000000000000000000000000000010000008000001000000000000000000040000000000000000000000000000000000000000008000000000000000",
      "type": "0x2",
      "transactionHash": "0x8540de949a71834c7655a5309a606409ab0137e9204c1b6541be745a3918c25a",
      "transactionIndex": "0x2",
      "blockHash": "0x8969d10a26ee35bb6af4b4af6679a7d133ef2b235beee5510d65d20f28336f94",
      "blockNumber": "0x773f299",
      "gasUsed": "0xf31a",
      "effectiveGasPrice": "0x5f5e100",
      "from": "0xf488ba1fe8b0523e863dda6a5f7d19f2bac00188",
      "to": "0x4f9f184a7f06ebe299dde44064f58151abbd134f",
      "contractAddress": null
    }
  ],
  "libraries": [],
  "pending": [],
  "returns": {},
  "timestamp": 1739906040,
  "chain": 421614,
  "commit": "05b6e60"
}