{
  "deployments": [
    {
      "transactions": [
        {
          "hash": "0x3277edf36f3b8bd4131beabc36be7d989624d94a87fea5a4a795eb2f509ccf0a",
          "transactionType": "CALL",
          "contractName": null,
          "contractAddress": "0xa0f7ae56e24a269f71bbf1bf3deb5b1e741492c9",
          "function": "approve(address,uint256)",
          "arguments": [
            "0xD030BfC9649af3f008f8465427Ffffab2DDd20d7",
            "1000000000000000000"
          ],
          "transaction": {
            "from": "0x1fd4e198baf6e6d035eb065ec154c91ac73f5b75",
            "to": "0xa0f7ae56e24a269f71bbf1bf3deb5b1e741492c9",
            "gas": "0xec52",
            "value": "0x0",
            "input": "0x095ea7b3000000000000000000000000d030bfc9649af3f008f8465427ffffab2ddd20d70000000000000000000000000000000000000000000000000de0b6b3a7640000",
            "nonce": "0x48",
            "chainId": "0x66eee"
          },
          "additionalContracts": [],
          "isFixedGasLimit": false
        },
        {
          "hash": "0x06ee137cf1f4beac21549d9253da5fbbcf5e0785d96487ebd7a406e650360df5",
          "transactionType": "CALL",
          "contractName": null,
          "contractAddress": "0xd030bfc9649af3f008f8465427ffffab2ddd20d7",
          "function": "deposit((address,address,address,address,address,uint256,uint256,uint256,uint256,uint32,uint32,uint16),bytes,(address,address,bytes))",
          "arguments": [
            "(0x1Fd4e198bAF6e6d035eB065Ec154c91AC73F5b75, 0x1Fd4e198bAF6e6d035eB065Ec154c91AC73F5b75, 0xA0F7Ae56E24A269f71BBF1BF3DeB5b1E741492C9, 0x6e56e17a9Ac93bd42F5C02613D24025327d0497E, 0x0000000000000000000000000000000000000000, 1000000000000000000, 1000000000000000000, 1740359679, 1740366979, 40231, 40161, 0)",
            "0x2e746a938f8306fd07691c0e7adf00f0c08fcf1dd1c6250c5f1328d3b004767229c79616868cf17e5beee56b72481c46672e70519030917043ceeb08b3128f431c",
            "(0x0000000000000000000000000000000000000000, 0xA0F7Ae56E24A269f71BBF1BF3DeB5b1E741492C9, 0x)"
          ],
          "transaction": {
            "from": "0x1fd4e198baf6e6d035eb065ec154c91ac73f5b75",
            "to": "0xd030bfc9649af3f008f8465427ffffab2ddd20d7",
            "gas": "0x685cc",
            "value": "0x0",
            "input": "0xe14edf9d0000000000000000000000001fd4e198baf6e6d035eb065ec154c91ac73f5b750000000000000000000000001fd4e198baf6e6d035eb065ec154c91ac73f5b75000000000000000000000000a0f7ae56e24a269f71bbf1bf3deb5b1e741492c90000000000000000000000006e56e17a9ac93bd42f5c02613d24025327d0497e00000000000000000000000000000000000000000000000000000000000000000000000000000000000000000000000000000000000000000de0b6b3a76400000000000000000000000000000000000000000000000000000de0b6b3a76400000000000000000000000000000000000000000000000000000000000067bbc7ff0000000000000000000000000000000000000000000000000000000067bbe4830000000000000000000000000000000000000000000000000000000000009d270000000000000000000000000000000000000000000000000000000000009ce1000000000000000000000000000000000000000000000000000000000000000000000000000000000000000000000000000000000000000000000000000001c0000000000000000000000000000000000000000000000000000000000000024000000000000000000000000000000000000000000000000000000000000000412e746a938f8306fd07691c0e7adf00f0c08fcf1dd1c6250c5f1328d3b004767229c79616868cf17e5beee56b72481c46672e70519030917043ceeb08b3128f431c000000000000000000000000000000000000000000000000000000000000000000000000000000000000000000000000000000000000000000000000000000000000000000000000000000a0f7ae56e24a269f71bbf1bf3deb5b1e741492c900000000000000000000000000000000000000000000000000000000000000600000000000000000000000000000000000000000000000000000000000000000",
            "nonce": "0x49",
            "chainId": "0x66eee"
          },
          "additionalContracts": [],
          "isFixedGasLimit": false
        }
      ],
      "receipts": [
        {
          "status": "0x1",
          "cumulativeGasUsed": "0xb44b",
          "logs": [
            {
              "address": "0xa0f7ae56e24a269f71bbf1bf3deb5b1e741492c9",
              "topics": [
                "0x8c5be1e5ebec7d5bd14f71427d1e84f3dd0314c0f7b2291e5b200ac8c7c3b925",
                "0x0000000000000000000000001fd4e198baf6e6d035eb065ec154c91ac73f5b75",
                "0x000000000000000000000000d030bfc9649af3f008f8465427ffffab2ddd20d7"
              ],
              "data": "0x0000000000000000000000000000000000000000000000000de0b6b3a7640000",
              "blockHash": "0x1030c9cc19cd5289ce599355038c80e1cae0016604536eba4043566e801dc5ef",
              "blockNumber": "0x78d55d6",
              "transactionHash": "0x3277edf36f3b8bd4131beabc36be7d989624d94a87fea5a4a795eb2f509ccf0a",
              "transactionIndex": "0x1",
              "logIndex": "0x0",
              "removed": false
            }
          ],
          "logsBloom": "0x00000000020000000000000000000000000000000000000000000000000000000000000000000000000000000000000200000000000000004000000000200000000000000000000000000000040000000000000000000000000000000000000000000000000002000000000000000000000000000000000000000000000000000000004000000000000000000000000000000000000000000000000000000000020000000000000000000000000000000000000000000000000000000004000000000000000000000000000000000000000000000008000001000000000000000010000000000000000000000000000000000000000000000000000000000000",
          "type": "0x2",
          "transactionHash": "0x3277edf36f3b8bd4131beabc36be7d989624d94a87fea5a4a795eb2f509ccf0a",
          "transactionIndex": "0x1",
          "blockHash": "0x1030c9cc19cd5289ce599355038c80e1cae0016604536eba4043566e801dc5ef",
          "blockNumber": "0x78d55d6",
          "gasUsed": "0xb44b",
          "effectiveGasPrice": "0x5f5e100",
          "from": "0x1fd4e198baf6e6d035eb065ec154c91ac73f5b75",
          "to": "0xa0f7ae56e24a269f71bbf1bf3deb5b1e741492c9",
          "contractAddress": null
        },
        {
          "status": "0x1",
          "cumulativeGasUsed": "0xe8f2f",
          "logs": [
            {
              "address": "0xa0f7ae56e24a269f71bbf1bf3deb5b1e741492c9",
              "topics": [
                "0xddf252ad1be2c89b69c2b068fc378daa952ba7f163c4a11628f55a4df523b3ef",
                "0x0000000000000000000000001fd4e198baf6e6d035eb065ec154c91ac73f5b75",
                "0x000000000000000000000000d030bfc9649af3f008f8465427ffffab2ddd20d7"
              ],
              "data": "0x0000000000000000000000000000000000000000000000000de0b6b3a7640000",
              "blockHash": "0x80cb312bec2dcdc8d721a885ffb2a537175ea29a65021e2036acf1188a2b26f5",
              "blockNumber": "0x78d55d9",
              "transactionHash": "0x06ee137cf1f4beac21549d9253da5fbbcf5e0785d96487ebd7a406e650360df5",
              "transactionIndex": "0x3",
              "logIndex": "0x14",
              "removed": false
            },
            {
              "address": "0xd030bfc9649af3f008f8465427ffffab2ddd20d7",
              "topics": [
                "0x1f6ba6056f778bc194a8335ecc8948fd546965262dc38d74ff5c5e08e93c5635"
              ],
              "data": "0x0000000000000000000000001fd4e198baf6e6d035eb065ec154c91ac73f5b750000000000000000000000001fd4e198baf6e6d035eb065ec154c91ac73f5b75000000000000000000000000a0f7ae56e24a269f71bbf1bf3deb5b1e741492c90000000000000000000000006e56e17a9ac93bd42f5c02613d24025327d0497e00000000000000000000000000000000000000000000000000000000000000000000000000000000000000000000000000000000000000000de0b6b3a76400000000000000000000000000000000000000000000000000000de0b6b3a76400000000000000000000000000000000000000000000000000000000000067bbc7ff0000000000000000000000000000000000000000000000000000000067bbe4830000000000000000000000000000000000000000000000000000000000009d270000000000000000000000000000000000000000000000000000000000009ce100000000000000000000000000000000000000000000000000000000000000008b4330f2dc73ceb718932f71b06ad8e8ee07024a5d87469fc55e8ee505b201c9",
              "blockHash": "0x80cb312bec2dcdc8d721a885ffb2a537175ea29a65021e2036acf1188a2b26f5",
              "blockNumber": "0x78d55d9",
              "transactionHash": "0x06ee137cf1f4beac21549d9253da5fbbcf5e0785d96487ebd7a406e650360df5",
              "transactionIndex": "0x3",
              "logIndex": "0x15",
              "removed": false
            }
          ],
          "logsBloom": "0x00000000020000000000000000000000000000000000000000000000000000000000000000000000000000000000000200000000000000004000000000000000000000000000000000000008040000000000000000000000000000000000000000000000000002000000000000000000000000000000000000000010000000080000004000000000000000000000000000004000000000000000000000000000000080000000000000000000000000000100000000000000000000000004000000000002000000000000000000000000000000000008000001000000000000000000000000000000000000000100000000000040000000000000000000000000",
          "type": "0x2",
          "transactionHash": "0x06ee137cf1f4beac21549d9253da5fbbcf5e0785d96487ebd7a406e650360df5",
          "transactionIndex": "0x3",
          "blockHash": "0x80cb312bec2dcdc8d721a885ffb2a537175ea29a65021e2036acf1188a2b26f5",
          "blockNumber": "0x78d55d9",
          "gasUsed": "0x4b8e8",
          "effectiveGasPrice": "0x5f5e100",
          "from": "0x1fd4e198baf6e6d035eb065ec154c91ac73f5b75",
          "to": "0xd030bfc9649af3f008f8465427ffffab2ddd20d7",
          "contractAddress": null
        }
      ],
      "libraries": [],
      "pending": [],
      "returns": {},
      "timestamp": 1740359795,
      "chain": 421614,
      "commit": "4e93677"
    },
    {
      "transactions": [
        {
          "hash": "0x2b42c9031c6035c9fc9021610cc1de8c65ea247ac20b9378727196cb10a9907b",
          "transactionType": "CALL",
          "contractName": null,
          "contractAddress": "0x6e56e17a9ac93bd42f5c02613d24025327d0497e",
          "function": "mint(address,uint256)",
          "arguments": [
            "0xf488bA1fe8b0523E863ddA6a5f7d19F2bAC00188",
            "100000000000000000000"
          ],
          "transaction": {
            "from": "0xf488ba1fe8b0523e863dda6a5f7d19f2bac00188",
            "to": "0x6e56e17a9ac93bd42f5c02613d24025327d0497e",
            "gas": "0xb800",
            "value": "0x0",
            "input": "0x40c10f19000000000000000000000000f488ba1fe8b0523e863dda6a5f7d19f2bac001880000000000000000000000000000000000000000000000056bc75e2d63100000",
            "nonce": "0x6",
            "chainId": "0xaa36a7"
          },
          "additionalContracts": [],
          "isFixedGasLimit": false
        },
        {
          "hash": "0xb60ba3b4bb4fbfb75722237bc65859a0c6a39c9ba51ad0b63bb6ce73b1594b6d",
          "transactionType": "CALL",
          "contractName": null,
          "contractAddress": "0x6e56e17a9ac93bd42f5c02613d24025327d0497e",
          "function": "approve(address,uint256)",
          "arguments": [
            "0xEA631c222514F6d971571298fd67b83eBd76936c",
            "100000000000000000000"
          ],
          "transaction": {
            "from": "0xf488ba1fe8b0523e863dda6a5f7d19f2bac00188",
            "to": "0x6e56e17a9ac93bd42f5c02613d24025327d0497e",
            "gas": "0xf917",
            "value": "0x0",
            "input": "0x095ea7b3000000000000000000000000ea631c222514f6d971571298fd67b83ebd76936c0000000000000000000000000000000000000000000000056bc75e2d63100000",
            "nonce": "0x7",
            "chainId": "0xaa36a7"
          },
          "additionalContracts": [],
          "isFixedGasLimit": false
        },
        {
          "hash": "0xae8de34923b5170b3248914aaca6f56b5ceee36cdefcb19d528548fca36b1664",
          "transactionType": "CALL",
          "contractName": null,
          "contractAddress": "0xea631c222514f6d971571298fd67b83ebd76936c",
          "function": "fill((address,address,bytes,uint256),(address,address,address,address,address,uint256,uint256,uint256,uint256,uint32,uint32,uint16))",
          "arguments": [
            "(0x0000000000000000000000000000000000000000, 0x6e56e17a9Ac93bd42F5C02613D24025327d0497E, 0x, 0)",
            "(0x1Fd4e198bAF6e6d035eB065Ec154c91AC73F5b75, 0x1Fd4e198bAF6e6d035eB065Ec154c91AC73F5b75, 0xA0F7Ae56E24A269f71BBF1BF3DeB5b1E741492C9, 0x6e56e17a9Ac93bd42F5C02613D24025327d0497E, 0x0000000000000000000000000000000000000000, 1000000000000000000, 1000000000000000000, 1740359679, 1740366979, 40231, 40161, 0)"
          ],
          "transaction": {
            "from": "0xf488ba1fe8b0523e863dda6a5f7d19f2bac00188",
            "to": "0xea631c222514f6d971571298fd67b83ebd76936c",
            "gas": "0x2bc5c",
            "value": "0x0",
            "input": "0x4719e91500000000000000000000000000000000000000000000000000000000000001a00000000000000000000000001fd4e198baf6e6d035eb065ec154c91ac73f5b750000000000000000000000001fd4e198baf6e6d035eb065ec154c91ac73f5b75000000000000000000000000a0f7ae56e24a269f71bbf1bf3deb5b1e741492c90000000000000000000000006e56e17a9ac93bd42f5c02613d24025327d0497e00000000000000000000000000000000000000000000000000000000000000000000000000000000000000000000000000000000000000000de0b6b3a76400000000000000000000000000000000000000000000000000000de0b6b3a76400000000000000000000000000000000000000000000000000000000000067bbc7ff0000000000000000000000000000000000000000000000000000000067bbe4830000000000000000000000000000000000000000000000000000000000009d270000000000000000000000000000000000000000000000000000000000009ce1000000000000000000000000000000000000000000000000000000000000000000000000000000000000000000000000000000000000000000000000000000000000000000000000000000006e56e17a9ac93bd42f5c02613d24025327d0497e000000000000000000000000000000000000000000000000000000000000008000000000000000000000000000000000000000000000000000000000000000000000000000000000000000000000000000000000000000000000000000000000",
            "nonce": "0x8",
            "chainId": "0xaa36a7"
          },
          "additionalContracts": [],
          "isFixedGasLimit": false
        },
        {
          "hash": "0xf62d58d108a99660e1d54dba0bb8003cea9a857c9e256f831384738f8de6aef7",
          "transactionType": "CALL",
          "contractName": null,
          "contractAddress": "0xea631c222514f6d971571298fd67b83ebd76936c",
          "function": "settle(uint32,address,bytes)",
          "arguments": [
            "40231",
            "0xf488bA1fe8b0523E863ddA6a5f7d19F2bAC00188",
            "0x00030100110100000000000000000000000000030d40"
          ],
          "transaction": {
            "from": "0xf488ba1fe8b0523e863dda6a5f7d19f2bac00188",
            "to": "0xea631c222514f6d971571298fd67b83ebd76936c",
            "gas": "0x534ae",
            "value": "0x16345785d8a0000",
            "input": "0x2c85455b0000000000000000000000000000000000000000000000000000000000009d27000000000000000000000000f488ba1fe8b0523e863dda6a5f7d19f2bac001880000000000000000000000000000000000000000000000000000000000000060000000000000000000000000000000000000000000000000000000000000001600030100110100000000000000000000000000030d4000000000000000000000",
            "nonce": "0x9",
            "chainId": "0xaa36a7"
          },
          "additionalContracts": [],
          "isFixedGasLimit": false
        }
      ],
      "receipts": [
        {
          "status": "0x1",
          "cumulativeGasUsed": "0x9f8725",
          "logs": [
            {
              "address": "0x6e56e17a9ac93bd42f5c02613d24025327d0497e",
              "topics": [
                "0xddf252ad1be2c89b69c2b068fc378daa952ba7f163c4a11628f55a4df523b3ef",
                "0x0000000000000000000000000000000000000000000000000000000000000000",
                "0x000000000000000000000000f488ba1fe8b0523e863dda6a5f7d19f2bac00188"
              ],
              "data": "0x0000000000000000000000000000000000000000000000056bc75e2d63100000",
              "blockHash": "0xb95eb433400f16f91be11f8520ec43eb8478d206169a14c9e249c52e9b3368d4",
              "blockNumber": "0x76993b",
              "transactionHash": "0x2b42c9031c6035c9fc9021610cc1de8c65ea247ac20b9378727196cb10a9907b",
              "transactionIndex": "0xa7",
              "logIndex": "0x9f",
              "removed": false
            }
          ],
          "logsBloom": "0x00000000000000020000000000000000000000000000000000000000000000000000000000000000000000000000000000000000000000000000000000000000800000000000000000000008000000000000000000000000400000000000000000000000020000000000000000000800000000000000000000000010000000000000000000000000000000000000000000000000000000000000000000000000000000000000000000000000000000000000001000000000000000000000000000000002000000000000000000000000000000000000000000000000000020000000040000000000000000000000000000000000000004000000000000000000",
          "type": "0x2",
          "transactionHash": "0x2b42c9031c6035c9fc9021610cc1de8c65ea247ac20b9378727196cb10a9907b",
          "transactionIndex": "0xa7",
          "blockHash": "0xb95eb433400f16f91be11f8520ec43eb8478d206169a14c9e249c52e9b3368d4",
          "blockNumber": "0x76993b",
          "gasUsed": "0x8537",
          "effectiveGasPrice": "0x14b8c647",
          "from": "0xf488ba1fe8b0523e863dda6a5f7d19f2bac00188",
          "to": "0x6e56e17a9ac93bd42f5c02613d24025327d0497e",
          "contractAddress": null
        },
        {
          "status": "0x1",
          "cumulativeGasUsed": "0x78929d",
          "logs": [
            {
              "address": "0x6e56e17a9ac93bd42f5c02613d24025327d0497e",
              "topics": [
                "0x8c5be1e5ebec7d5bd14f71427d1e84f3dd0314c0f7b2291e5b200ac8c7c3b925",
                "0x000000000000000000000000f488ba1fe8b0523e863dda6a5f7d19f2bac00188",
                "0x000000000000000000000000ea631c222514f6d971571298fd67b83ebd76936c"
              ],
              "data": "0x0000000000000000000000000000000000000000000000056bc75e2d63100000",
              "blockHash": "0x010b901efb2d3ed131862b3f10837b16637d3daed36f80fb1e6095ddcf0bf05c",
              "blockNumber": "0x76993c",
              "transactionHash": "0xb60ba3b4bb4fbfb75722237bc65859a0c6a39c9ba51ad0b63bb6ce73b1594b6d",
              "transactionIndex": "0x79",
              "logIndex": "0x62",
              "removed": false
            }
          ],
          "logsBloom": "0x00000000000000020000004000000000000000000000000000000000000000000000000000000000000000000000000000000000000000000000000000200000800000000000000000000000000000000000000000000000400000000000000000000000000000000000000000000000000000000000000000000000000000000000000000000000000000000000002000000000000000000000000000000000020000000000000000000000000000000000001000000000000000000000000000000000000000000000000000000000000000000000000000000000000000000010040000000000000000000000800000000000000004000000000000000000",
          "type": "0x2",
          "transactionHash": "0xb60ba3b4bb4fbfb75722237bc65859a0c6a39c9ba51ad0b63bb6ce73b1594b6d",
          "transactionIndex": "0x79",
          "blockHash": "0x010b901efb2d3ed131862b3f10837b16637d3daed36f80fb1e6095ddcf0bf05c",
          "blockNumber": "0x76993c",
          "gasUsed": "0xb457",
          "effectiveGasPrice": "0x150d57db",
          "from": "0xf488ba1fe8b0523e863dda6a5f7d19f2bac00188",
          "to": "0x6e56e17a9ac93bd42f5c02613d24025327d0497e",
          "contractAddress": null
        },
        {
          "status": "0x1",
          "cumulativeGasUsed": "0x95e907",
          "logs": [
            {
              "address": "0x6e56e17a9ac93bd42f5c02613d24025327d0497e",
              "topics": [
                "0xddf252ad1be2c89b69c2b068fc378daa952ba7f163c4a11628f55a4df523b3ef",
                "0x000000000000000000000000f488ba1fe8b0523e863dda6a5f7d19f2bac00188",
                "0x0000000000000000000000001fd4e198baf6e6d035eb065ec154c91ac73f5b75"
              ],
              "data": "0x0000000000000000000000000000000000000000000000000de0b6b3a7640000",
              "blockHash": "0x3699ad7420a7124912f980b2f6632d6f127ecc2a847c39ac8386c5426531e3c0",
              "blockNumber": "0x76993d",
              "transactionHash": "0xae8de34923b5170b3248914aaca6f56b5ceee36cdefcb19d528548fca36b1664",
              "transactionIndex": "0x8a",
              "logIndex": "0x88",
              "removed": false
            },
            {
              "address": "0xea631c222514f6d971571298fd67b83ebd76936c",
              "topics": [
                "0xb74c1459cd8a27a95e7f6d55371a6c4906228ff3ea317332ca336712f2161c4c"
              ],
              "data": "0x0000000000000000000000001fd4e198baf6e6d035eb065ec154c91ac73f5b750000000000000000000000001fd4e198baf6e6d035eb065ec154c91ac73f5b75000000000000000000000000a0f7ae56e24a269f71bbf1bf3deb5b1e741492c90000000000000000000000006e56e17a9ac93bd42f5c02613d24025327d0497e00000000000000000000000000000000000000000000000000000000000000000000000000000000000000000000000000000000000000000de0b6b3a76400000000000000000000000000000000000000000000000000000de0b6b3a76400000000000000000000000000000000000000000000000000000000000067bbc7ff0000000000000000000000000000000000000000000000000000000067bbe4830000000000000000000000000000000000000000000000000000000000009d270000000000000000000000000000000000000000000000000000000000009ce100000000000000000000000000000000000000000000000000000000000000008b4330f2dc73ceb718932f71b06ad8e8ee07024a5d87469fc55e8ee505b201c9",
              "blockHash": "0x3699ad7420a7124912f980b2f6632d6f127ecc2a847c39ac8386c5426531e3c0",
              "blockNumber": "0x76993d",
              "transactionHash": "0xae8de34923b5170b3248914aaca6f56b5ceee36cdefcb19d528548fca36b1664",
              "transactionIndex": "0x8a",
              "logIndex": "0x89",
              "removed": false
            }
          ],
          "logsBloom": "0x00000000020400020000000000000000000000000000000000000000000200000000000000000000000000000000000000000000000000000000000000000000800000000000000000000008040000000000000000000000400000000000000000000000000000000000000000000000000000000000000000000010000000000000004000000000000000000000000000000000000000000000000000000000000000000000000000000000000000000000001000000000000000008000000000000002000000000000000000000080000010000000000000000000100000000000040000000000000000000000000000000000000004000000000000000000",
          "type": "0x2",
          "transactionHash": "0xae8de34923b5170b3248914aaca6f56b5ceee36cdefcb19d528548fca36b1664",
          "transactionIndex": "0x8a",
          "blockHash": "0x3699ad7420a7124912f980b2f6632d6f127ecc2a847c39ac8386c5426531e3c0",
          "blockNumber": "0x76993d",
          "gasUsed": "0x1fb0d",
          "effectiveGasPrice": "0x13f21f5b",
          "from": "0xf488ba1fe8b0523e863dda6a5f7d19f2bac00188",
          "to": "0xea631c222514f6d971571298fd67b83ebd76936c",
          "contractAddress": null
        },
        {
          "status": "0x1",
          "cumulativeGasUsed": "0xbdb56d",
          "logs": [
            {
              "address": "0xcc1ae8cf5d3904cef3360a9532b477529b177cce",
              "topics": [
                "0x61ed099e74a97a1d7f8bb0952a88ca8b7b8ebd00c126ea04671f92a81213318a"
              ],
              "data": "0x000000000000000000000000718b92b5cb0a5552039b593faf724d182a881eda00000000000000000000000000000000000000000000000000005ac03624bfc8",
              "blockHash": "0x3bb1e75095e28496a94ebcba836cde148f21989e1419d58c3375c76086392765",
              "blockNumber": "0x76993e",
              "transactionHash": "0xf62d58d108a99660e1d54dba0bb8003cea9a857c9e256f831384738f8de6aef7",
              "transactionIndex": "0x92",
              "logIndex": "0xaf",
              "removed": false
            },
            {
              "address": "0xcc1ae8cf5d3904cef3360a9532b477529b177cce",
              "topics": [
                "0x07ea52d82345d6e838192107d8fd7123d9c2ec8e916cd0aad13fd2b60db24644"
              ],
              "data": "0x000000000000000000000000000000000000000000000000000000000000006000000000000000000000000000000000000000000000000000000000000000a000000000000000000000000000000000000000000000000000000000000000c000000000000000000000000000000000000000000000000000000000000000010000000000000000000000008eebf8b423b73bfca51a1db4b7354aa0bfca91930000000000000000000000000000000000000000000000000000000000000000000000000000000000000000000000000000000000000000000000000000000100000000000000000000000000000000000000000000000000000c2c80d35d30",
              "blockHash": "0x3bb1e75095e28496a94ebcba836cde148f21989e1419d58c3375c76086392765",
              "blockNumber": "0x76993e",
              "transactionHash": "0xf62d58d108a99660e1d54dba0bb8003cea9a857c9e256f831384738f8de6aef7",
              "transactionIndex": "0x92",
              "logIndex": "0xb0",
              "removed": false
            },
            {
              "address": "0x6edce65403992e310a62460808c4b910d972f10f",
              "topics": [
                "0x1ab700d4ced0c005b164c0f789fd09fcbb0156d4c2041b8a3bfbcd961cd1567f"
              ],
              "data": "0x00000000000000000000000000000000000000000000000000000000000000600000000000000000000000000000000000000000000000000000000000000140000000000000000000000000cc1ae8cf5d3904cef3360a9532b477529b177cce00000000000000000000000000000000000000000000000000000000000000a801000000000000000100009ce1000000000000000000000000ea631c222514f6d971571298fd67b83ebd76936c00009d27000000000000000000000000d030bfc9649af3f008f8465427ffffab2ddd20d7ec9a4c7bfc391bbdcbf523936fec53ccd052a1e3f6e0983e10ba6ef493d6d28100f488ba1fe8b0523e863dda6a5f7d19f2bac0018800018b4330f2dc73ceb718932f71b06ad8e8ee07024a5d87469fc55e8ee505b201c9000000000000000000000000000000000000000000000000000000000000000000000000000000000000000000000000000000000000001600030100110100000000000000000000000000030d4000000000000000000000",
              "blockHash": "0x3bb1e75095e28496a94ebcba836cde148f21989e1419d58c3375c76086392765",
              "blockNumber": "0x76993e",
              "transactionHash": "0xf62d58d108a99660e1d54dba0bb8003cea9a857c9e256f831384738f8de6aef7",
              "transactionIndex": "0x92",
              "logIndex": "0xb1",
              "removed": false
            },
            {
              "address": "0xea631c222514f6d971571298fd67b83ebd76936c",
              "topics": [
                "0xfa636c2e3db9c4a50080ee4305952c55a6b6c200807847530dc5950fed59d05a"
              ],
              "data": "0x0000000000000000000000000000000000000000000000000000000000009d27000000000000000000000000f488ba1fe8b0523e863dda6a5f7d19f2bac001880000000000000000000000000000000000000000000000000000000000000060000000000000000000000000000000000000000000000000000000000000003700f488ba1fe8b0523e863dda6a5f7d19f2bac0018800018b4330f2dc73ceb718932f71b06ad8e8ee07024a5d87469fc55e8ee505b201c9000000000000000000",
              "blockHash": "0x3bb1e75095e28496a94ebcba836cde148f21989e1419d58c3375c76086392765",
              "blockNumber": "0x76993e",
              "transactionHash": "0xf62d58d108a99660e1d54dba0bb8003cea9a857c9e256f831384738f8de6aef7",
              "transactionIndex": "0x92",
              "logIndex": "0xb2",
              "removed": false
            }
          ],
          "logsBloom": "0x00000000000400000000000000000000000000000000000000000000000100000000000000000000200000000000000000000000000000000000000000000000000000000000002001000000000000000000000000000000000000000000000000000000000000008200000000000000000000000000000000000000000000000000000000000020000000080000000000000000000000000000000000000000000000008000000000100000000000000000200000400000000440008000000000000000000000000000000000000000000010080000000000000000000000000000040000000000000000000000002000000000000000000000000000000020",
          "type": "0x2",
          "transactionHash": "0xf62d58d108a99660e1d54dba0bb8003cea9a857c9e256f831384738f8de6aef7",
          "transactionIndex": "0x92",
          "blockHash": "0x3bb1e75095e28496a94ebcba836cde148f21989e1419d58c3375c76086392765",
          "blockNumber": "0x76993e",
          "gasUsed": "0x3c4d7",
          "effectiveGasPrice": "0x1411d2f5",
          "from": "0xf488ba1fe8b0523e863dda6a5f7d19f2bac00188",
          "to": "0xea631c222514f6d971571298fd67b83ebd76936c",
          "contractAddress": null
        }
      ],
      "libraries": [],
      "pending": [],
      "returns": {},
      "timestamp": 1740359796,
      "chain": 11155111,
      "commit": "4e93677"
    }
  ],
  "timestamp": 1740359849
}