{
  "deployments": [
    {
      "transactions": [
        {
          "hash": null,
          "transactionType": "CALL",
          "contractName": null,
          "contractAddress": "0xaf88d065e77c8cc2239327c5edb3a432268e5831",
          "function": "approve(address,uint256)",
          "arguments": [
            "0x397411cd0Dd9156ADE29Fe8f65160cf402DF5e5C",
            "1000000"
          ],
          "transaction": {
            "from": "0xf488ba1fe8b0523e863dda6a5f7d19f2bac00188",
            "to": "0xaf88d065e77c8cc2239327c5edb3a432268e5831",
            "gas": "0x136b7",
            "value": "0x0",
            "input": "0x095ea7b3000000000000000000000000397411cd0dd9156ade29fe8f65160cf402df5e5c00000000000000000000000000000000000000000000000000000000000f4240",
            "nonce": "0x16",
            "chainId": "0xa4b1"
          },
          "additionalContracts": [],
          "isFixedGasLimit": false
        },
        {
          "hash": null,
          "transactionType": "CALL",
          "contractName": null,
          "contractAddress": "0x397411cd0dd9156ade29fe8f65160cf402df5e5c",
          "function": "deposit((address,address,address,address,address,uint256,uint256,uint256,uint256,uint32,uint32,uint16),bytes,(address,address,bytes))",
          "arguments": [
            "(0xf488bA1fe8b0523E863ddA6a5f7d19F2bAC00188, 0xf488bA1fe8b0523E863ddA6a5f7d19F2bAC00188, 0xaf88d065e77c8cC2239327C5EDb3A432268e5831, 0x833589fCD6eDb6E08f4c7C32D4f71b54bdA02913, 0x0000000000000000000000000000000000000000, 1000000, 1000000, 1740379087, 1740386387, 30110, 30184, 0)",
            "0x4deace61ca2f922109496bb046488aaeae286fc529afd176be50aa650f2face036500737267b8d02d530f6049eb6614aac3b5c99455d72bed15fcba28b2141321c",
            "(0x0000000000000000000000000000000000000000, 0xaf88d065e77c8cC2239327C5EDb3A432268e5831, 0x)"
          ],
          "transaction": {
            "from": "0xf488ba1fe8b0523e863dda6a5f7d19f2bac00188",
            "to": "0x397411cd0dd9156ade29fe8f65160cf402df5e5c",
            "gas": "0x726df",
            "value": "0x0",
            "input": "0xe14edf9d000000000000000000000000f488ba1fe8b0523e863dda6a5f7d19f2bac00188000000000000000000000000f488ba1fe8b0523e863dda6a5f7d19f2bac00188000000000000000000000000af88d065e77c8cc2239327c5edb3a432268e5831000000000000000000000000833589fcd6edb6e08f4c7c32d4f71b54bda02913000000000000000000000000000000000000000000000000000000000000000000000000000000000000000000000000000000000000000000000000000f424000000000000000000000000000000000000000000000000000000000000f42400000000000000000000000000000000000000000000000000000000067bc13cf0000000000000000000000000000000000000000000000000000000067bc3053000000000000000000000000000000000000000000000000000000000000759e00000000000000000000000000000000000000000000000000000000000075e8000000000000000000000000000000000000000000000000000000000000000000000000000000000000000000000000000000000000000000000000000001c0000000000000000000000000000000000000000000000000000000000000024000000000000000000000000000000000000000000000000000000000000000414deace61ca2f922109496bb046488aaeae286fc529afd176be50aa650f2face036500737267b8d02d530f6049eb6614aac3b5c99455d72bed15fcba28b2141321c000000000000000000000000000000000000000000000000000000000000000000000000000000000000000000000000000000000000000000000000000000000000000000000000000000af88d065e77c8cc2239327c5edb3a432268e583100000000000000000000000000000000000000000000000000000000000000600000000000000000000000000000000000000000000000000000000000000000",
            "nonce": "0x17",
            "chainId": "0xa4b1"
          },
          "additionalContracts": [],
          "isFixedGasLimit": false
        }
      ],
      "receipts": [],
      "libraries": [],
      "pending": [],
      "returns": {},
      "timestamp": 1740379206,
      "chain": 42161,
      "commit": "4e93677"
    },
    {
      "transactions": [
        {
          "hash": null,
          "transactionType": "CALL",
          "contractName": null,
          "contractAddress": "0x833589fcd6edb6e08f4c7c32d4f71b54bda02913",
          "function": "approve(address,uint256)",
          "arguments": [
            "0xf411498156a6219A97356A5F40170a2313f8653c",
            "1000000"
          ],
          "transaction": {
            "from": "0x1fd4e198baf6e6d035eb065ec154c91ac73f5b75",
            "to": "0x833589fcd6edb6e08f4c7c32d4f71b54bda02913",
            "gas": "0x12b1b",
            "value": "0x0",
            "input": "0x095ea7b3000000000000000000000000f411498156a6219a97356a5f40170a2313f8653c00000000000000000000000000000000000000000000000000000000000f4240",
            "nonce": "0x2018",
            "chainId": "0x2105"
          },
          "additionalContracts": [],
          "isFixedGasLimit": false
        },
        {
          "hash": null,
          "transactionType": "CALL",
          "contractName": null,
          "contractAddress": "0xf411498156a6219a97356a5f40170a2313f8653c",
          "function": "fill((address,address,bytes,uint256),(address,address,address,address,address,uint256,uint256,uint256,uint256,uint32,uint32,uint16))",
          "arguments": [
            "(0x0000000000000000000000000000000000000000, 0x833589fCD6eDb6E08f4c7C32D4f71b54bdA02913, 0x, 0)",
            "(0xf488bA1fe8b0523E863ddA6a5f7d19F2bAC00188, 0xf488bA1fe8b0523E863ddA6a5f7d19F2bAC00188, 0xaf88d065e77c8cC2239327C5EDb3A432268e5831, 0x833589fCD6eDb6E08f4c7C32D4f71b54bdA02913, 0x0000000000000000000000000000000000000000, 1000000, 1000000, 1740379087, 1740386387, 30110, 30184, 0)"
          ],
          "transaction": {
            "from": "0x1fd4e198baf6e6d035eb065ec154c91ac73f5b75",
            "to": "0xf411498156a6219a97356a5f40170a2313f8653c",
            "gas": "0x28c47",
            "value": "0x0",
            "input": "0x4719e91500000000000000000000000000000000000000000000000000000000000001a0000000000000000000000000f488ba1fe8b0523e863dda6a5f7d19f2bac00188000000000000000000000000f488ba1fe8b0523e863dda6a5f7d19f2bac00188000000000000000000000000af88d065e77c8cc2239327c5edb3a432268e5831000000000000000000000000833589fcd6edb6e08f4c7c32d4f71b54bda02913000000000000000000000000000000000000000000000000000000000000000000000000000000000000000000000000000000000000000000000000000f424000000000000000000000000000000000000000000000000000000000000f42400000000000000000000000000000000000000000000000000000000067bc13cf0000000000000000000000000000000000000000000000000000000067bc3053000000000000000000000000000000000000000000000000000000000000759e00000000000000000000000000000000000000000000000000000000000075e800000000000000000000000000000000000000000000000000000000000000000000000000000000000000000000000000000000000000000000000000000000000000000000000000000000833589fcd6edb6e08f4c7c32d4f71b54bda02913000000000000000000000000000000000000000000000000000000000000008000000000000000000000000000000000000000000000000000000000000000000000000000000000000000000000000000000000000000000000000000000000",
            "nonce": "0x2019",
            "chainId": "0x2105"
          },
          "additionalContracts": [],
          "isFixedGasLimit": false
        },
        {
          "hash": null,
          "transactionType": "CALL",
          "contractName": null,
          "contractAddress": "0xf411498156a6219a97356a5f40170a2313f8653c",
          "function": "settle(uint32,address,bytes)",
          "arguments": [
            "30110",
            "0x1Fd4e198bAF6e6d035eB065Ec154c91AC73F5b75",
            "0x00030100110100000000000000000000000000030d40"
          ],
          "transaction": {
            "from": "0x1fd4e198baf6e6d035eb065ec154c91ac73f5b75",
            "to": "0xf411498156a6219a97356a5f40170a2313f8653c",
            "gas": "0x66e98",
            "value": "0x2386f26fc10000",
            "input": "0x2c85455b000000000000000000000000000000000000000000000000000000000000759e0000000000000000000000001fd4e198baf6e6d035eb065ec154c91ac73f5b750000000000000000000000000000000000000000000000000000000000000060000000000000000000000000000000000000000000000000000000000000001600030100110100000000000000000000000000030d4000000000000000000000",
            "nonce": "0x201a",
            "chainId": "0x2105"
          },
          "additionalContracts": [],
          "isFixedGasLimit": false
        }
      ],
      "receipts": [],
      "libraries": [],
      "pending": [],
      "returns": {},
      "timestamp": 1740379206,
      "chain": 8453,
      "commit": "4e93677"
    }
  ],
  "timestamp": 1740379206
}