{
  "deployments": [
    {
      "transactions": [
        {
          "hash": "0xa92372a06d9ec3750323fb97b6cd8050e78c979539ec145a3b1a0c2cc0738aa8",
          "transactionType": "CALL",
          "contractName": null,
          "contractAddress": "0xa0f7ae56e24a269f71bbf1bf3deb5b1e741492c9",
          "function": "approve(address,uint256)",
          "arguments": [
            "0x4F9F184A7f06eBE299dde44064f58151aBBd134f",
            "1000000000000000000"
          ],
          "transaction": {
            "from": "0x1fd4e198baf6e6d035eb065ec154c91ac73f5b75",
            "to": "0xa0f7ae56e24a269f71bbf1bf3deb5b1e741492c9",
            "gas": "0xec52",
            "value": "0x0",
            "input": "0x095ea7b30000000000000000000000004f9f184a7f06ebe299dde44064f58151abbd134f0000000000000000000000000000000000000000000000000de0b6b3a7640000",
            "nonce": "0x39",
            "chainId": "0x66eee"
          },
          "additionalContracts": [],
          "isFixedGasLimit": false
        },
        {
          "hash": "0x33f625e30bb27a35a10e37b091e6b4796ad7dfd9c4cf3d92a2b50473afe80cd2",
          "transactionType": "CALL",
          "contractName": null,
          "contractAddress": "0x4f9f184a7f06ebe299dde44064f58151abbd134f",
          "function": "deposit(bytes,address,(address,address,address,address,address,uint256,uint256,uint256,uint256,uint32,uint32,uint16),bytes)",
          "arguments": [
            "0x",
            "0x0000000000000000000000000000000000000000",
            "(0x1Fd4e198bAF6e6d035eB065Ec154c91AC73F5b75, 0x1Fd4e198bAF6e6d035eB065Ec154c91AC73F5b75, 0xA0F7Ae56E24A269f71BBF1BF3DeB5b1E741492C9, 0x6e56e17a9Ac93bd42F5C02613D24025327d0497E, 0x0000000000000000000000000000000000000000, 1000000000000000000, 1000000000000000000, 1739903780, 1739911080, 40231, 40161, 0)",
            "0x"
          ],
          "transaction": {
            "from": "0x1fd4e198baf6e6d035eb065ec154c91ac73f5b75",
            "to": "0x4f9f184a7f06ebe299dde44064f58151abbd134f",
            "gas": "0x5fdf3",
            "value": "0x0",
            "input": "0xe41d318f00000000000000000000000000000000000000000000000000000000000001e000000000000000000000000000000000000000000000000000000000000000000000000000000000000000001fd4e198baf6e6d035eb065ec154c91ac73f5b750000000000000000000000001fd4e198baf6e6d035eb065ec154c91ac73f5b75000000000000000000000000a0f7ae56e24a269f71bbf1bf3deb5b1e741492c90000000000000000000000006e56e17a9ac93bd42f5c02613d24025327d0497e00000000000000000000000000000000000000000000000000000000000000000000000000000000000000000000000000000000000000000de0b6b3a76400000000000000000000000000000000000000000000000000000de0b6b3a76400000000000000000000000000000000000000000000000000000000000067b4d3240000000000000000000000000000000000000000000000000000000067b4efa80000000000000000000000000000000000000000000000000000000000009d270000000000000000000000000000000000000000000000000000000000009ce10000000000000000000000000000000000000000000000000000000000000000000000000000000000000000000000000000000000000000000000000000020000000000000000000000000000000000000000000000000000000000000000000000000000000000000000000000000000000000000000000000000000000000",
            "nonce": "0x3a",
            "chainId": "0x66eee"
          },
          "additionalContracts": [],
          "isFixedGasLimit": false
        }
      ],
      "receipts": [
        {
          "status": "0x1",
          "cumulativeGasUsed": "0x1585b",
          "logs": [
            {
              "address": "0xa0f7ae56e24a269f71bbf1bf3deb5b1e741492c9",
              "topics": [
                "0x8c5be1e5ebec7d5bd14f71427d1e84f3dd0314c0f7b2291e5b200ac8c7c3b925",
                "0x0000000000000000000000001fd4e198baf6e6d035eb065ec154c91ac73f5b75",
                "0x0000000000000000000000004f9f184a7f06ebe299dde44064f58151abbd134f"
              ],
              "data": "0x0000000000000000000000000000000000000000000000000de0b6b3a7640000",
              "blockHash": "0xafc70afef30209b2b8b8141c883d94e24fcee49f997f7e0387b08c2938bdebe5",
              "blockNumber": "0x773d4e4",
              "transactionHash": "0xa92372a06d9ec3750323fb97b6cd8050e78c979539ec145a3b1a0c2cc0738aa8",
              "transactionIndex": "0x3",
              "logIndex": "0x0",
              "removed": false
            }
          ],
          "logsBloom": "0x00000000020000000000000000000000000000000000000000000000000000000000000000000000000000000000000000000000000000000000000000200000000000000000000000000000041000000000000000000000000000000000000000000000000000000000000000000000000000000000000000000000000000000010004000000000000000000000000000000000000000000000000000000000020000000000000000000000000000000000000000000000000020000004000000000000000000000000000000000000000000000008000001000000000000000010000000000000000000000000000000000000000000000000000000000000",
          "type": "0x2",
          "transactionHash": "0xa92372a06d9ec3750323fb97b6cd8050e78c979539ec145a3b1a0c2cc0738aa8",
          "transactionIndex": "0x3",
          "blockHash": "0xafc70afef30209b2b8b8141c883d94e24fcee49f997f7e0387b08c2938bdebe5",
          "blockNumber": "0x773d4e4",
          "gasUsed": "0xb44b",
          "effectiveGasPrice": "0x5f5e100",
          "from": "0x1fd4e198baf6e6d035eb065ec154c91ac73f5b75",
          "to": "0xa0f7ae56e24a269f71bbf1bf3deb5b1e741492c9",
          "contractAddress": null,
          "gasUsedForL1": "0x0",
          "l1BlockNumber": "0x760915"
        },
        {
          "status": "0x1",
          "cumulativeGasUsed": "0x25389b",
          "logs": [
            {
              "address": "0xa0f7ae56e24a269f71bbf1bf3deb5b1e741492c9",
              "topics": [
                "0xddf252ad1be2c89b69c2b068fc378daa952ba7f163c4a11628f55a4df523b3ef",
                "0x0000000000000000000000001fd4e198baf6e6d035eb065ec154c91ac73f5b75",
                "0x0000000000000000000000004f9f184a7f06ebe299dde44064f58151abbd134f"
              ],
              "data": "0x0000000000000000000000000000000000000000000000000de0b6b3a7640000",
              "blockHash": "0x2b6c2a1cf2c3e35164c57e44ea28ab1b32d4a59669c3a9d6dbaba7bbc4426253",
              "blockNumber": "0x773d4e7",
              "transactionHash": "0x33f625e30bb27a35a10e37b091e6b4796ad7dfd9c4cf3d92a2b50473afe80cd2",
              "transactionIndex": "0x2",
              "logIndex": "0x3",
              "removed": false
            },
            {
              "address": "0x4f9f184a7f06ebe299dde44064f58151abbd134f",
              "topics": [
                "0x1f6ba6056f778bc194a8335ecc8948fd546965262dc38d74ff5c5e08e93c5635"
              ],
              "data": "0x0000000000000000000000001fd4e198baf6e6d035eb065ec154c91ac73f5b750000000000000000000000001fd4e198baf6e6d035eb065ec154c91ac73f5b75000000000000000000000000a0f7ae56e24a269f71bbf1bf3deb5b1e741492c90000000000000000000000006e56e17a9ac93bd42f5c02613d24025327d0497e00000000000000000000000000000000000000000000000000000000000000000000000000000000000000000000000000000000000000000de0b6b3a76400000000000000000000000000000000000000000000000000000de0b6b3a76400000000000000000000000000000000000000000000000000000000000067b4d3240000000000000000000000000000000000000000000000000000000067b4efa80000000000000000000000000000000000000000000000000000000000009d270000000000000000000000000000000000000000000000000000000000009ce10000000000000000000000000000000000000000000000000000000000000000672df8ee92e942dbe86b94382199a262744921a6805a4b8873ca7b378409fed3",
              "blockHash": "0x2b6c2a1cf2c3e35164c57e44ea28ab1b32d4a59669c3a9d6dbaba7bbc4426253",
              "blockNumber": "0x773d4e7",
              "transactionHash": "0x33f625e30bb27a35a10e37b091e6b4796ad7dfd9c4cf3d92a2b50473afe80cd2",
              "transactionIndex": "0x2",
              "logIndex": "0x4",
              "removed": false
            }
          ],
          "logsBloom": "0x00000000020000000000000000000000000000000000000000000000000000000000000000000000000000000000000000000000000000000000000000000000000000000000000000000008041000000000000000000000000000000000000000000000000000000000000000000000000000080000000000000010000000080010004000000000000000000000000000000000000000000000000000000000000000000000000000000000000000000000000000000000000020000004000008000002000000000000000000000000000010000008000001000000000000000000000000000000000000000100000000000040000000000000000000000000",
          "type": "0x2",
          "transactionHash": "0x33f625e30bb27a35a10e37b091e6b4796ad7dfd9c4cf3d92a2b50473afe80cd2",
          "transactionIndex": "0x2",
          "blockHash": "0x2b6c2a1cf2c3e35164c57e44ea28ab1b32d4a59669c3a9d6dbaba7bbc4426253",
          "blockNumber": "0x773d4e7",
          "gasUsed": "0x418db",
          "effectiveGasPrice": "0x5f5e100",
          "from": "0x1fd4e198baf6e6d035eb065ec154c91ac73f5b75",
          "to": "0x4f9f184a7f06ebe299dde44064f58151abbd134f",
          "contractAddress": null,
          "gasUsedForL1": "0x0",
          "l1BlockNumber": "0x760915"
        }
      ],
      "libraries": [],
      "pending": [],
      "returns": {},
      "timestamp": 1739903896,
      "chain": 421614,
      "commit": "05b6e60"
    },
    {
      "transactions": [
        {
          "hash": "0xeb215d425e31e0b1991a0b739bc65a20ad17ee1f548aac7035189e9d0ef931a9",
          "transactionType": "CALL",
          "contractName": null,
          "contractAddress": "0x6e56e17a9ac93bd42f5c02613d24025327d0497e",
          "function": "approve(address,uint256)",
          "arguments": [
            "0x5E155644e7C78503637B4440F9a02FDC3be254dF",
            "1000000000000000000"
          ],
          "transaction": {
            "from": "0x1fd4e198baf6e6d035eb065ec154c91ac73f5b75",
            "to": "0x6e56e17a9ac93bd42f5c02613d24025327d0497e",
            "gas": "0x107ad",
            "value": "0x0",
            "input": "0x095ea7b30000000000000000000000005e155644e7c78503637b4440f9a02fdc3be254df0000000000000000000000000000000000000000000000000de0b6b3a7640000",
            "nonce": "0x67",
            "chainId": "0xaa36a7"
          },
          "additionalContracts": [],
          "isFixedGasLimit": false
        },
        {
          "hash": "0xb0bac410a50984437c3b8c3f817e3bfcc7598f04ebfb6675d0d38b2540c98f2b",
          "transactionType": "CALL",
          "contractName": null,
          "contractAddress": "0x5e155644e7c78503637b4440f9a02fdc3be254df",
          "function": "fill(bytes,address,(address,address,address,address,address,uint256,uint256,uint256,uint256,uint32,uint32,uint16))",
          "arguments": [
            "0x",
            "0x0000000000000000000000000000000000000000",
            "(0x1Fd4e198bAF6e6d035eB065Ec154c91AC73F5b75, 0x1Fd4e198bAF6e6d035eB065Ec154c91AC73F5b75, 0xA0F7Ae56E24A269f71BBF1BF3DeB5b1E741492C9, 0x6e56e17a9Ac93bd42F5C02613D24025327d0497E, 0x0000000000000000000000000000000000000000, 1000000000000000000, 1000000000000000000, 1739903780, 1739911080, 40231, 40161, 0)"
          ],
          "transaction": {
            "from": "0x1fd4e198baf6e6d035eb065ec154c91ac73f5b75",
            "to": "0x5e155644e7c78503637b4440f9a02fdc3be254df",
            "gas": "0x2201d",
            "value": "0x0",
            "input": "0x4011625600000000000000000000000000000000000000000000000000000000000001c000000000000000000000000000000000000000000000000000000000000000000000000000000000000000001fd4e198baf6e6d035eb065ec154c91ac73f5b750000000000000000000000001fd4e198baf6e6d035eb065ec154c91ac73f5b75000000000000000000000000a0f7ae56e24a269f71bbf1bf3deb5b1e741492c90000000000000000000000006e56e17a9ac93bd42f5c02613d24025327d0497e00000000000000000000000000000000000000000000000000000000000000000000000000000000000000000000000000000000000000000de0b6b3a76400000000000000000000000000000000000000000000000000000de0b6b3a76400000000000000000000000000000000000000000000000000000000000067b4d3240000000000000000000000000000000000000000000000000000000067b4efa80000000000000000000000000000000000000000000000000000000000009d270000000000000000000000000000000000000000000000000000000000009ce100000000000000000000000000000000000000000000000000000000000000000000000000000000000000000000000000000000000000000000000000000000",
            "nonce": "0x68",
            "chainId": "0xaa36a7"
          },
          "additionalContracts": [],
          "isFixedGasLimit": false
        },
        {
          "hash": "0xe11a081b0582025d05ab9f2459eb4f635e5f4347af5a7d0ca78894e55f0bda7b",
          "transactionType": "CALL",
          "contractName": null,
          "contractAddress": "0x5e155644e7c78503637b4440f9a02fdc3be254df",
          "function": "settle(uint32,address,bytes)",
          "arguments": [
            "40231",
            "0x1Fd4e198bAF6e6d035eB065Ec154c91AC73F5b75",
            "0x00030100110100000000000000000000000000030d40"
          ],
          "transaction": {
            "from": "0x1fd4e198baf6e6d035eb065ec154c91ac73f5b75",
            "to": "0x5e155644e7c78503637b4440f9a02fdc3be254df",
            "gas": "0x5c3dc",
            "value": "0x16345785d8a0000",
            "input": "0x2c85455b0000000000000000000000000000000000000000000000000000000000009d270000000000000000000000001fd4e198baf6e6d035eb065ec154c91ac73f5b750000000000000000000000000000000000000000000000000000000000000060000000000000000000000000000000000000000000000000000000000000001600030100110100000000000000000000000000030d4000000000000000000000",
            "nonce": "0x69",
            "chainId": "0xaa36a7"
          },
          "additionalContracts": [],
          "isFixedGasLimit": false
        }
      ],
      "receipts": [
        {
          "status": "0x1",
          "cumulativeGasUsed": "0xded906",
          "logs": [
            {
              "address": "0x6e56e17a9ac93bd42f5c02613d24025327d0497e",
              "topics": [
                "0x8c5be1e5ebec7d5bd14f71427d1e84f3dd0314c0f7b2291e5b200ac8c7c3b925",
                "0x0000000000000000000000001fd4e198baf6e6d035eb065ec154c91ac73f5b75",
                "0x0000000000000000000000005e155644e7c78503637b4440f9a02fdc3be254df"
              ],
              "data": "0x0000000000000000000000000000000000000000000000000de0b6b3a7640000",
              "blockHash": "0xbf36cb20a81123db8a5d29fc04e824126ba7da70e6887aedb64a7a2439130c2c",
              "blockNumber": "0x760917",
              "transactionHash": "0xeb215d425e31e0b1991a0b739bc65a20ad17ee1f548aac7035189e9d0ef931a9",
              "transactionIndex": "0x79",
              "logIndex": "0x99",
              "removed": false
            }
          ],
          "logsBloom": "0x00000000020000020000000000000000000000000000000000000000000000000000000000000000000000000000000000000000000000000000000000200000800000000000000000000000040000000000000000000000000000000000000000000000000000000000000000000000800000000000000000000000000000000000004000000000000000000000000000000000000000000000000000000000020000000000000000000000000000000000000000000000000000000000000000000000000000000000000000000000000000000000000000000000000000000010000000080000000000000000000000000000001004000000000000000000",
          "type": "0x2",
          "transactionHash": "0xeb215d425e31e0b1991a0b739bc65a20ad17ee1f548aac7035189e9d0ef931a9",
          "transactionIndex": "0x79",
          "blockHash": "0xbf36cb20a81123db8a5d29fc04e824126ba7da70e6887aedb64a7a2439130c2c",
          "blockNumber": "0x760917",
          "gasUsed": "0xb44b",
          "effectiveGasPrice": "0x488d3b0f",
          "from": "0x1fd4e198baf6e6d035eb065ec154c91ac73f5b75",
          "to": "0x6e56e17a9ac93bd42f5c02613d24025327d0497e",
          "contractAddress": null
        },
        {
          "status": "0x1",
          "cumulativeGasUsed": "0xe062f5",
          "logs": [
            {
              "address": "0x6e56e17a9ac93bd42f5c02613d24025327d0497e",
              "topics": [
                "0xddf252ad1be2c89b69c2b068fc378daa952ba7f163c4a11628f55a4df523b3ef",
                "0x0000000000000000000000001fd4e198baf6e6d035eb065ec154c91ac73f5b75",
                "0x0000000000000000000000001fd4e198baf6e6d035eb065ec154c91ac73f5b75"
              ],
              "data": "0x0000000000000000000000000000000000000000000000000de0b6b3a7640000",
              "blockHash": "0xbf36cb20a81123db8a5d29fc04e824126ba7da70e6887aedb64a7a2439130c2c",
              "blockNumber": "0x760917",
              "transactionHash": "0xb0bac410a50984437c3b8c3f817e3bfcc7598f04ebfb6675d0d38b2540c98f2b",
              "transactionIndex": "0x7a",
              "logIndex": "0x9a",
              "removed": false
            },
            {
              "address": "0x5e155644e7c78503637b4440f9a02fdc3be254df",
              "topics": [
                "0xa4e4b420840134845f8f909491203de187c857b1347967c28b77efd3f2df105c"
              ],
              "data": "0x0000000000000000000000001fd4e198baf6e6d035eb065ec154c91ac73f5b750000000000000000000000001fd4e198baf6e6d035eb065ec154c91ac73f5b75000000000000000000000000a0f7ae56e24a269f71bbf1bf3deb5b1e741492c90000000000000000000000006e56e17a9ac93bd42f5c02613d24025327d0497e00000000000000000000000000000000000000000000000000000000000000000000000000000000000000000000000000000000000000000de0b6b3a76400000000000000000000000000000000000000000000000000000de0b6b3a76400000000000000000000000000000000000000000000000000000000000067b4d3240000000000000000000000000000000000000000000000000000000067b4efa80000000000000000000000000000000000000000000000000000000000009d270000000000000000000000000000000000000000000000000000000000009ce10000000000000000000000000000000000000000000000000000000000000000",
              "blockHash": "0xbf36cb20a81123db8a5d29fc04e824126ba7da70e6887aedb64a7a2439130c2c",
              "blockNumber": "0x760917",
              "transactionHash": "0xb0bac410a50984437c3b8c3f817e3bfcc7598f04ebfb6675d0d38b2540c98f2b",
              "transactionIndex": "0x7a",
              "logIndex": "0x9b",
              "removed": false
            }
          ],
          "logsBloom": "0x00000000020080020000000000000000000000000000000000000000000000000000000000000000000000000000000000000000000000000000000000000000800000000000000000000008040040000000000000000000000000000000000000000000000000000000000000000000000000000000000000000010000000000000004000000000000000000000000000000000000000000000000000000010000000000000000000000080000000000000000000000000000000000000000000000002000000000000000000800000000000000000000000000000000000000000000000000000000001000000000000000000000004000000000000000000",
          "type": "0x2",
          "transactionHash": "0xb0bac410a50984437c3b8c3f817e3bfcc7598f04ebfb6675d0d38b2540c98f2b",
          "transactionIndex": "0x7a",
          "blockHash": "0xbf36cb20a81123db8a5d29fc04e824126ba7da70e6887aedb64a7a2439130c2c",
          "blockNumber": "0x760917",
          "gasUsed": "0x189ef",
          "effectiveGasPrice": "0x488d3b0f",
          "from": "0x1fd4e198baf6e6d035eb065ec154c91ac73f5b75",
          "to": "0x5e155644e7c78503637b4440f9a02fdc3be254df",
          "contractAddress": null
        },
        {
          "status": "0x1",
          "cumulativeGasUsed": "0xe45418",
          "logs": [
            {
              "address": "0xcc1ae8cf5d3904cef3360a9532b477529b177cce",
              "topics": [
                "0x61ed099e74a97a1d7f8bb0952a88ca8b7b8ebd00c126ea04671f92a81213318a"
              ],
              "data": "0x000000000000000000000000718b92b5cb0a5552039b593faf724d182a881eda00000000000000000000000000000000000000000000000000005acc21e6bfc8",
              "blockHash": "0xbf36cb20a81123db8a5d29fc04e824126ba7da70e6887aedb64a7a2439130c2c",
              "blockNumber": "0x760917",
              "transactionHash": "0xe11a081b0582025d05ab9f2459eb4f635e5f4347af5a7d0ca78894e55f0bda7b",
              "transactionIndex": "0x7b",
              "logIndex": "0x9c",
              "removed": false
            },
            {
              "address": "0xcc1ae8cf5d3904cef3360a9532b477529b177cce",
              "topics": [
                "0x07ea52d82345d6e838192107d8fd7123d9c2ec8e916cd0aad13fd2b60db24644"
              ],
              "data": "0x000000000000000000000000000000000000000000000000000000000000006000000000000000000000000000000000000000000000000000000000000000a000000000000000000000000000000000000000000000000000000000000000c000000000000000000000000000000000000000000000000000000000000000010000000000000000000000008eebf8b423b73bfca51a1db4b7354aa0bfca91930000000000000000000000000000000000000000000000000000000000000000000000000000000000000000000000000000000000000000000000000000000100000000000000000000000000000000000000000000000000000c2c80d35d30",
              "blockHash": "0xbf36cb20a81123db8a5d29fc04e824126ba7da70e6887aedb64a7a2439130c2c",
              "blockNumber": "0x760917",
              "transactionHash": "0xe11a081b0582025d05ab9f2459eb4f635e5f4347af5a7d0ca78894e55f0bda7b",
              "transactionIndex": "0x7b",
              "logIndex": "0x9d",
              "removed": false
            },
            {
              "address": "0x6edce65403992e310a62460808c4b910d972f10f",
              "topics": [
                "0x1ab700d4ced0c005b164c0f789fd09fcbb0156d4c2041b8a3bfbcd961cd1567f"
              ],
              "data": "0x00000000000000000000000000000000000000000000000000000000000000600000000000000000000000000000000000000000000000000000000000000160000000000000000000000000cc1ae8cf5d3904cef3360a9532b477529b177cce00000000000000000000000000000000000000000000000000000000000000c801000000000000000100009ce10000000000000000000000005e155644e7c78503637b4440f9a02fdc3be254df00009d270000000000000000000000004f9f184a7f06ebe299dde44064f58151abbd134f063335ff2ca6dc9792708cfa4b58606c744ad1c4672f786b56995fd414c6d05f001fd4e198baf6e6d035eb065ec154c91ac73f5b750002d45dcaeda683f81f403c23c3997945c935d2b844e283df8e81cb24cbde075131672df8ee92e942dbe86b94382199a262744921a6805a4b8873ca7b378409fed3000000000000000000000000000000000000000000000000000000000000000000000000000000000000000000000000000000000000001600030100110100000000000000000000000000030d4000000000000000000000",
              "blockHash": "0xbf36cb20a81123db8a5d29fc04e824126ba7da70e6887aedb64a7a2439130c2c",
              "blockNumber": "0x760917",
              "transactionHash": "0xe11a081b0582025d05ab9f2459eb4f635e5f4347af5a7d0ca78894e55f0bda7b",
              "transactionIndex": "0x7b",
              "logIndex": "0x9e",
              "removed": false
            },
            {
              "address": "0x5e155644e7c78503637b4440f9a02fdc3be254df",
              "topics": [
                "0xfa636c2e3db9c4a50080ee4305952c55a6b6c200807847530dc5950fed59d05a"
              ],
              "data": "0x0000000000000000000000000000000000000000000000000000000000009d270000000000000000000000001fd4e198baf6e6d035eb065ec154c91ac73f5b7500000000000000000000000000000000000000000000000000000000000000600000000000000000000000000000000000000000000000000000000000000057001fd4e198baf6e6d035eb065ec154c91ac73f5b750002d45dcaeda683f81f403c23c3997945c935d2b844e283df8e81cb24cbde075131672df8ee92e942dbe86b94382199a262744921a6805a4b8873ca7b378409fed3000000000000000000",
              "blockHash": "0xbf36cb20a81123db8a5d29fc04e824126ba7da70e6887aedb64a7a2439130c2c",
              "blockNumber": "0x760917",
              "transactionHash": "0xe11a081b0582025d05ab9f2459eb4f635e5f4347af5a7d0ca78894e55f0bda7b",
              "transactionIndex": "0x7b",
              "logIndex": "0x9f",
              "removed": false
            }
          ],
          "logsBloom": "0x00000000000080000000000000000000000000000000000000000000000100000000000000000000200000000000000000000000000000000000000000000000000000000000002001000000000040000000000000000000000000000000000000000000000000008200000000000000000000000000000000000000000000000000000000000020000000080000000000000000000000000000000000000000000000008000000000100080000000000000200000400000000440000000000000000000000000000000000000000000000000080000000000000000000000000000040000000000000000000000002000000000000000000000000000000020",
          "type": "0x2",
          "transactionHash": "0xe11a081b0582025d05ab9f2459eb4f635e5f4347af5a7d0ca78894e55f0bda7b",
          "transactionIndex": "0x7b",
          "blockHash": "0xbf36cb20a81123db8a5d29fc04e824126ba7da70e6887aedb64a7a2439130c2c",
          "blockNumber": "0x760917",
          "gasUsed": "0x3f123",
          "effectiveGasPrice": "0x488d3b0f",
          "from": "0x1fd4e198baf6e6d035eb065ec154c91ac73f5b75",
          "to": "0x5e155644e7c78503637b4440f9a02fdc3be254df",
          "contractAddress": null
        }
      ],
      "libraries": [],
      "pending": [],
      "returns": {},
      "timestamp": 1739903897,
      "chain": 11155111,
      "commit": "05b6e60"
    }
  ],
  "timestamp": 1739903907
}