{
  "deployments": [
    {
      "transactions": [
        {
          "hash": "0x8170da70531be30188030b5e0f28fd473f6cda5b5b3113ffa91e6faaa66ed167",
          "transactionType": "CALL",
          "contractName": null,
          "contractAddress": "0xaf88d065e77c8cc2239327c5edb3a432268e5831",
          "function": "approve(address,uint256)",
          "arguments": [
            "0x397411cd0Dd9156ADE29Fe8f65160cf402DF5e5C",
            "1000000"
          ],
          "transaction": {
            "from": "0xf488ba1fe8b0523e863dda6a5f7d19f2bac00188",
            "to": "0xaf88d065e77c8cc2239327c5edb3a432268e5831",
            "gas": "0x13621",
            "value": "0x0",
            "input": "0x095ea7b3000000000000000000000000397411cd0dd9156ade29fe8f65160cf402df5e5c00000000000000000000000000000000000000000000000000000000000f4240",
            "nonce": "0x14",
            "chainId": "0xa4b1"
          },
          "additionalContracts": [],
          "isFixedGasLimit": false
        },
        {
          "hash": "0x87064e888bf5642366be3fd76257cbef201e210a05d4d3a9fc9a5b355395f928",
          "transactionType": "CALL",
          "contractName": null,
          "contractAddress": "0x397411cd0dd9156ade29fe8f65160cf402df5e5c",
          "function": "deposit((address,address,address,address,address,uint256,uint256,uint256,uint256,uint32,uint32,uint16),bytes,(address,address,bytes))",
          "arguments": [
            "(0xf488bA1fe8b0523E863ddA6a5f7d19F2bAC00188, 0xf488bA1fe8b0523E863ddA6a5f7d19F2bAC00188, 0xaf88d065e77c8cC2239327C5EDb3A432268e5831, 0x833589fCD6eDb6E08f4c7C32D4f71b54bdA02913, 0x0000000000000000000000000000000000000000, 1000000, 1000000, 1740377912, 1740385212, 30110, 30184, 0)",
            "0xc186ffea756081424062447ed073f2f86d65120dad54805edcb82f76ddf19ac05d1a19612bfea17c0da066bfb08e43e7c135452d882d36cabbe9a07dc97f52831b",
            "(0x0000000000000000000000000000000000000000, 0xaf88d065e77c8cC2239327C5EDb3A432268e5831, 0x)"
          ],
          "transaction": {
            "from": "0xf488ba1fe8b0523e863dda6a5f7d19f2bac00188",
            "to": "0x397411cd0dd9156ade29fe8f65160cf402df5e5c",
            "gas": "0x726df",
            "value": "0x0",
            "input": "0xe14edf9d000000000000000000000000f488ba1fe8b0523e863dda6a5f7d19f2bac00188000000000000000000000000f488ba1fe8b0523e863dda6a5f7d19f2bac00188000000000000000000000000af88d065e77c8cc2239327c5edb3a432268e5831000000000000000000000000833589fcd6edb6e08f4c7c32d4f71b54bda02913000000000000000000000000000000000000000000000000000000000000000000000000000000000000000000000000000000000000000000000000000f424000000000000000000000000000000000000000000000000000000000000f42400000000000000000000000000000000000000000000000000000000067bc0f380000000000000000000000000000000000000000000000000000000067bc2bbc000000000000000000000000000000000000000000000000000000000000759e00000000000000000000000000000000000000000000000000000000000075e8000000000000000000000000000000000000000000000000000000000000000000000000000000000000000000000000000000000000000000000000000001c000000000000000000000000000000000000000000000000000000000000002400000000000000000000000000000000000000000000000000000000000000041c186ffea756081424062447ed073f2f86d65120dad54805edcb82f76ddf19ac05d1a19612bfea17c0da066bfb08e43e7c135452d882d36cabbe9a07dc97f52831b000000000000000000000000000000000000000000000000000000000000000000000000000000000000000000000000000000000000000000000000000000000000000000000000000000af88d065e77c8cc2239327c5edb3a432268e583100000000000000000000000000000000000000000000000000000000000000600000000000000000000000000000000000000000000000000000000000000000",
            "nonce": "0x15",
            "chainId": "0xa4b1"
          },
          "additionalContracts": [],
          "isFixedGasLimit": false
        }
      ],
      "receipts": [
        {
          "status": "0x1",
          "cumulativeGasUsed": "0x19eec",
          "logs": [
            {
              "address": "0xaf88d065e77c8cc2239327c5edb3a432268e5831",
              "topics": [
                "0x8c5be1e5ebec7d5bd14f71427d1e84f3dd0314c0f7b2291e5b200ac8c7c3b925",
                "0x000000000000000000000000f488ba1fe8b0523e863dda6a5f7d19f2bac00188",
                "0x000000000000000000000000397411cd0dd9156ade29fe8f65160cf402df5e5c"
              ],
              "data": "0x00000000000000000000000000000000000000000000000000000000000f4240",
              "blockHash": "0x691e546a8dd288bc895ce1413de2eb0d13725b29ed3b356b8a8d51190a5fdfc1",
              "blockNumber": "0x126fcaee",
              "transactionHash": "0x8170da70531be30188030b5e0f28fd473f6cda5b5b3113ffa91e6faaa66ed167",
              "transactionIndex": "0x2",
              "logIndex": "0x2",
              "removed": false
            }
          ],
          "logsBloom": "0x00000000000000000000000000000000000000000000000000000000000000000000000000000000000000000000000000000001000000000000000000200000000000000000000000000000000000000000000000000000400000000000000000000000000000000000000000000000000000000000000000000000000000000000000000000000000000000000000000000800000000000000000000000000020000000000000000000000000000000000001000000000000000000001000000002000000000000000000000000000000000000000000000000000000008000010040000000000000000000000200000000000000000000000000000000000",
          "type": "0x2",
          "transactionHash": "0x8170da70531be30188030b5e0f28fd473f6cda5b5b3113ffa91e6faaa66ed167",
          "transactionIndex": "0x2",
          "blockHash": "0x691e546a8dd288bc895ce1413de2eb0d13725b29ed3b356b8a8d51190a5fdfc1",
          "blockNumber": "0x126fcaee",
          "gasUsed": "0xe712",
          "effectiveGasPrice": "0x989680",
          "from": "0xf488ba1fe8b0523e863dda6a5f7d19f2bac00188",
          "to": "0xaf88d065e77c8cc2239327c5edb3a432268e5831",
          "contractAddress": null
        },
        {
          "status": "0x1",
          "cumulativeGasUsed": "0x505e4",
          "logs": [
            {
              "address": "0xaf88d065e77c8cc2239327c5edb3a432268e5831",
              "topics": [
                "0xddf252ad1be2c89b69c2b068fc378daa952ba7f163c4a11628f55a4df523b3ef",
                "0x000000000000000000000000f488ba1fe8b0523e863dda6a5f7d19f2bac00188",
                "0x000000000000000000000000397411cd0dd9156ade29fe8f65160cf402df5e5c"
              ],
              "data": "0x00000000000000000000000000000000000000000000000000000000000f4240",
              "blockHash": "0xc6defec5c8d29249b3ed57235be5366cd23f84f760090cddc9717cc67cb820ee",
              "blockNumber": "0x126fcaf0",
              "transactionHash": "0x87064e888bf5642366be3fd76257cbef201e210a05d4d3a9fc9a5b355395f928",
              "transactionIndex": "0x1",
              "logIndex": "0x0",
              "removed": false
            },
            {
              "address": "0x397411cd0dd9156ade29fe8f65160cf402df5e5c",
              "topics": [
                "0x1f6ba6056f778bc194a8335ecc8948fd546965262dc38d74ff5c5e08e93c5635"
              ],
              "data": "0x000000000000000000000000f488ba1fe8b0523e863dda6a5f7d19f2bac00188000000000000000000000000f488ba1fe8b0523e863dda6a5f7d19f2bac00188000000000000000000000000af88d065e77c8cc2239327c5edb3a432268e5831000000000000000000000000833589fcd6edb6e08f4c7c32d4f71b54bda02913000000000000000000000000000000000000000000000000000000000000000000000000000000000000000000000000000000000000000000000000000f424000000000000000000000000000000000000000000000000000000000000f42400000000000000000000000000000000000000000000000000000000067bc0f380000000000000000000000000000000000000000000000000000000067bc2bbc000000000000000000000000000000000000000000000000000000000000759e00000000000000000000000000000000000000000000000000000000000075e800000000000000000000000000000000000000000000000000000000000000004b6b0d7cf954546ce5bb1f70585a7b043269e04560d1f32e17f7cd92210f91b5",
              "blockHash": "0xc6defec5c8d29249b3ed57235be5366cd23f84f760090cddc9717cc67cb820ee",
              "blockNumber": "0x126fcaf0",
              "transactionHash": "0x87064e888bf5642366be3fd76257cbef201e210a05d4d3a9fc9a5b355395f928",
              "transactionIndex": "0x1",
              "logIndex": "0x1",
              "removed": false
            }
          ],
          "logsBloom": "0x00000000000000000000000000000000000000000000000000000000000000000000000000000000000000000000000000000001000000000000000000000000000200000000000000000008000000000000000000000000400000000000000000000000000000000000000001000000000000000000000000000010000000080000000000000000000000000000000000000800000000000000000000000000000000000000000000000000000000000000001000000000000000000001000000002002000000000000000000000000000000000000000000000000000008000000040010000000000000000100200000000040000000000000000000000000",
          "type": "0x2",
          "transactionHash": "0x87064e888bf5642366be3fd76257cbef201e210a05d4d3a9fc9a5b355395f928",
          "transactionIndex": "0x1",
          "blockHash": "0xc6defec5c8d29249b3ed57235be5366cd23f84f760090cddc9717cc67cb820ee",
          "blockNumber": "0x126fcaf0",
          "gasUsed": "0x505e4",
          "effectiveGasPrice": "0x989680",
          "from": "0xf488ba1fe8b0523e863dda6a5f7d19f2bac00188",
          "to": "0x397411cd0dd9156ade29fe8f65160cf402df5e5c",
          "contractAddress": null
        }
      ],
      "libraries": [],
      "pending": [],
      "returns": {},
      "timestamp": 1740378030,
      "chain": 42161,
      "commit": "4e93677"
    },
    {
      "transactions": [
        {
          "hash": "0x0102d1ea2a3dee16bd4ebd896d914c210a15a6abf89bbb78148f99a7bcb5aff3",
          "transactionType": "CALL",
          "contractName": null,
          "contractAddress": "0x833589fcd6edb6e08f4c7c32d4f71b54bda02913",
          "function": "approve(address,uint256)",
          "arguments": [
            "0xf411498156a6219A97356A5F40170a2313f8653c",
            "1000000"
          ],
          "transaction": {
            "from": "0x1fd4e198baf6e6d035eb065ec154c91ac73f5b75",
            "to": "0x833589fcd6edb6e08f4c7c32d4f71b54bda02913",
            "gas": "0x12b1b",
            "value": "0x0",
            "input": "0x095ea7b3000000000000000000000000f411498156a6219a97356a5f40170a2313f8653c00000000000000000000000000000000000000000000000000000000000f4240",
            "nonce": "0x2015",
            "chainId": "0x2105"
          },
          "additionalContracts": [],
          "isFixedGasLimit": false
        },
        {
          "hash": "0x781d66d4412b274f80ec04733478f6d89e3cf25e7fefb85de5ff583f1c844626",
          "transactionType": "CALL",
          "contractName": null,
          "contractAddress": "0xf411498156a6219a97356a5f40170a2313f8653c",
          "function": "fill((address,address,bytes,uint256),(address,address,address,address,address,uint256,uint256,uint256,uint256,uint32,uint32,uint16))",
          "arguments": [
            "(0x0000000000000000000000000000000000000000, 0x833589fCD6eDb6E08f4c7C32D4f71b54bdA02913, 0x, 0)",
            "(0xf488bA1fe8b0523E863ddA6a5f7d19F2bAC00188, 0xf488bA1fe8b0523E863ddA6a5f7d19F2bAC00188, 0xaf88d065e77c8cC2239327C5EDb3A432268e5831, 0x833589fCD6eDb6E08f4c7C32D4f71b54bdA02913, 0x0000000000000000000000000000000000000000, 1000000, 1000000, 1740377912, 1740385212, 30110, 30184, 0)"
          ],
          "transaction": {
            "from": "0x1fd4e198baf6e6d035eb065ec154c91ac73f5b75",
            "to": "0xf411498156a6219a97356a5f40170a2313f8653c",
            "gas": "0x344cf",
            "value": "0x0",
            "input": "0x4719e91500000000000000000000000000000000000000000000000000000000000001a0000000000000000000000000f488ba1fe8b0523e863dda6a5f7d19f2bac00188000000000000000000000000f488ba1fe8b0523e863dda6a5f7d19f2bac00188000000000000000000000000af88d065e77c8cc2239327c5edb3a432268e5831000000000000000000000000833589fcd6edb6e08f4c7c32d4f71b54bda02913000000000000000000000000000000000000000000000000000000000000000000000000000000000000000000000000000000000000000000000000000f424000000000000000000000000000000000000000000000000000000000000f42400000000000000000000000000000000000000000000000000000000067bc0f380000000000000000000000000000000000000000000000000000000067bc2bbc000000000000000000000000000000000000000000000000000000000000759e00000000000000000000000000000000000000000000000000000000000075e800000000000000000000000000000000000000000000000000000000000000000000000000000000000000000000000000000000000000000000000000000000000000000000000000000000833589fcd6edb6e08f4c7c32d4f71b54bda02913000000000000000000000000000000000000000000000000000000000000008000000000000000000000000000000000000000000000000000000000000000000000000000000000000000000000000000000000000000000000000000000000",
            "nonce": "0x2016",
            "chainId": "0x2105"
          },
          "additionalContracts": [],
          "isFixedGasLimit": false
        },
        {
          "hash": "0x270ba39a3a10d636edf58d84a3b1cc3ead93aadb3cd36ed847cd4d6d04e7ab74",
          "transactionType": "CALL",
          "contractName": null,
          "contractAddress": "0xf411498156a6219a97356a5f40170a2313f8653c",
          "function": "settle(uint32,address,bytes)",
          "arguments": [
            "30110",
            "0x1Fd4e198bAF6e6d035eB065Ec154c91AC73F5b75",
            "0x00030100110100000000000000000000000000030d40"
          ],
          "transaction": {
            "from": "0x1fd4e198baf6e6d035eb065ec154c91ac73f5b75",
            "to": "0xf411498156a6219a97356a5f40170a2313f8653c",
            "gas": "0x68f80",
            "value": "0x2386f26fc10000",
            "input": "0x2c85455b000000000000000000000000000000000000000000000000000000000000759e0000000000000000000000001fd4e198baf6e6d035eb065ec154c91ac73f5b750000000000000000000000000000000000000000000000000000000000000060000000000000000000000000000000000000000000000000000000000000001600030100110100000000000000000000000000030d4000000000000000000000",
            "nonce": "0x2017",
            "chainId": "0x2105"
          },
          "additionalContracts": [],
          "isFixedGasLimit": false
        }
      ],
      "receipts": [
        {
          "status": "0x1",
          "cumulativeGasUsed": "0x2e72b96",
          "logs": [
            {
              "address": "0x833589fcd6edb6e08f4c7c32d4f71b54bda02913",
              "topics": [
                "0x8c5be1e5ebec7d5bd14f71427d1e84f3dd0314c0f7b2291e5b200ac8c7c3b925",
                "0x0000000000000000000000001fd4e198baf6e6d035eb065ec154c91ac73f5b75",
                "0x000000000000000000000000f411498156a6219a97356a5f40170a2313f8653c"
              ],
              "data": "0x00000000000000000000000000000000000000000000000000000000000f4240",
              "blockHash": "0xcc33609a9310a967f0fd0cea73fc2b9d473df452bdec52ad057c6055ddd8f17f",
              "blockNumber": "0x198d968",
              "transactionHash": "0x0102d1ea2a3dee16bd4ebd896d914c210a15a6abf89bbb78148f99a7bcb5aff3",
              "transactionIndex": "0x7a",
              "logIndex": "0x1e7",
              "removed": false
            }
          ],
          "logsBloom": "0x00000000020200000000000000000000000000000000000000000000000000000000000000000000000000000000100000000000000000000000000000200000000000000000000000000000040000000000000000080000000000000000000000800000000000000000020000000000000000000000000000000000000000000000004000000000000000000000000000000000000000000000000000000000020000000000000000000000000000000000000000000000000000000000000000000000000000000000000000000000000000000800000000000000000000000010000000000000000000000000000000000000000000000000000000000000",
          "type": "0x2",
          "transactionHash": "0x0102d1ea2a3dee16bd4ebd896d914c210a15a6abf89bbb78148f99a7bcb5aff3",
          "transactionIndex": "0x7a",
          "blockHash": "0xcc33609a9310a967f0fd0cea73fc2b9d473df452bdec52ad057c6055ddd8f17f",
          "blockNumber": "0x198d968",
          "gasUsed": "0xd88d",
          "effectiveGasPrice": "0x1b9bc1",
          "from": "0x1fd4e198baf6e6d035eb065ec154c91ac73f5b75",
          "to": "0x833589fcd6edb6e08f4c7c32d4f71b54bda02913",
          "contractAddress": null,
          "l1BaseFeeScalar": "0x8dd",
          "l1BlobBaseFee": "0xf192",
          "l1BlobBaseFeeScalar": "0x101c12",
          "l1Fee": "0x90b7a384",
          "l1GasPrice": "0x27c16506",
          "l1GasUsed": "0x640"
        },
        {
          "status": "0x1",
          "cumulativeGasUsed": "0x25a7a91",
          "logs": [
            {
              "address": "0x833589fcd6edb6e08f4c7c32d4f71b54bda02913",
              "topics": [
                "0xddf252ad1be2c89b69c2b068fc378daa952ba7f163c4a11628f55a4df523b3ef",
                "0x0000000000000000000000001fd4e198baf6e6d035eb065ec154c91ac73f5b75",
                "0x000000000000000000000000f488ba1fe8b0523e863dda6a5f7d19f2bac00188"
              ],
              "data": "0x00000000000000000000000000000000000000000000000000000000000f4240",
              "blockHash": "0x02fb84c34ffb7dbc985a6ba009ea5d85f802bab08db4b23d3cd4a7989319efba",
              "blockNumber": "0x198d96b",
              "transactionHash": "0x781d66d4412b274f80ec04733478f6d89e3cf25e7fefb85de5ff583f1c844626",
              "transactionIndex": "0x81",
              "logIndex": "0x194",
              "removed": false
            },
            {
              "address": "0xf411498156a6219a97356a5f40170a2313f8653c",
              "topics": [
                "0xb74c1459cd8a27a95e7f6d55371a6c4906228ff3ea317332ca336712f2161c4c"
              ],
              "data": "0x000000000000000000000000f488ba1fe8b0523e863dda6a5f7d19f2bac00188000000000000000000000000f488ba1fe8b0523e863dda6a5f7d19f2bac00188000000000000000000000000af88d065e77c8cc2239327c5edb3a432268e5831000000000000000000000000833589fcd6edb6e08f4c7c32d4f71b54bda02913000000000000000000000000000000000000000000000000000000000000000000000000000000000000000000000000000000000000000000000000000f424000000000000000000000000000000000000000000000000000000000000f42400000000000000000000000000000000000000000000000000000000067bc0f380000000000000000000000000000000000000000000000000000000067bc2bbc000000000000000000000000000000000000000000000000000000000000759e00000000000000000000000000000000000000000000000000000000000075e800000000000000000000000000000000000000000000000000000000000000004b6b0d7cf954546ce5bb1f70585a7b043269e04560d1f32e17f7cd92210f91b5",
              "blockHash": "0x02fb84c34ffb7dbc985a6ba009ea5d85f802bab08db4b23d3cd4a7989319efba",
              "blockNumber": "0x198d96b",
              "transactionHash": "0x781d66d4412b274f80ec04733478f6d89e3cf25e7fefb85de5ff583f1c844626",
              "transactionIndex": "0x81",
              "logIndex": "0x195",
              "removed": false
            }
          ],
          "logsBloom": "0x00000000020000000100000000000000000000000000000000000000000200000000000000000000000000000000100000000000200000000000000000000000000000000000000000000008040000000000000000080000400000000000000000800000000000000000000000000000000000000000000000000010000000000000004000000000000000000000000000000000000000000000000000000000000000000000000000000000000000000004001000000000000000000000000000000002000000000000000000000080000000000000000000000000100000000000040000000000000000000000000000000000000000000000000000000000",
          "type": "0x2",
          "transactionHash": "0x781d66d4412b274f80ec04733478f6d89e3cf25e7fefb85de5ff583f1c844626",
          "transactionIndex": "0x81",
          "blockHash": "0x02fb84c34ffb7dbc985a6ba009ea5d85f802bab08db4b23d3cd4a7989319efba",
          "blockNumber": "0x198d96b",
          "gasUsed": "0x25dd6",
          "effectiveGasPrice": "0x1b9c8e",
          "from": "0x1fd4e198baf6e6d035eb065ec154c91ac73f5b75",
          "to": "0xf411498156a6219a97356a5f40170a2313f8653c",
          "contractAddress": null,
          "l1BaseFeeScalar": "0x8dd",
          "l1BlobBaseFee": "0x10fc4",
          "l1BlobBaseFeeScalar": "0x101c12",
          "l1Fee": "0xfd31ac2d",
          "l1GasPrice": "0x26a4515f",
          "l1GasUsed": "0xb3e"
        },
        {
          "status": "0x1",
          "cumulativeGasUsed": "0x26233e3",
          "logs": [
            {
              "address": "0xb5320b0b3a13cc860893e2bd79fcd7e13484dda2",
              "topics": [
                "0x61ed099e74a97a1d7f8bb0952a88ca8b7b8ebd00c126ea04671f92a81213318a"
              ],
              "data": "0x0000000000000000000000002cca08ae69e0c44b18a57ab2a87644234daebae400000000000000000000000000000000000000000000000000001228adc68429",
              "blockHash": "0x3502342ce8dfbb984ddd9f52aa21c53616bfca4910ecc37bab472d316bdd7cfe",
              "blockNumber": "0x198d96f",
              "transactionHash": "0x270ba39a3a10d636edf58d84a3b1cc3ead93aadb3cd36ed847cd4d6d04e7ab74",
              "transactionIndex": "0x7f",
              "logIndex": "0x174",
              "removed": false
            },
            {
              "address": "0xb5320b0b3a13cc860893e2bd79fcd7e13484dda2",
              "topics": [
                "0x07ea52d82345d6e838192107d8fd7123d9c2ec8e916cd0aad13fd2b60db24644"
              ],
              "data": "0x000000000000000000000000000000000000000000000000000000000000006000000000000000000000000000000000000000000000000000000000000000c000000000000000000000000000000000000000000000000000000000000000e000000000000000000000000000000000000000000000000000000000000000020000000000000000000000009e059a54699a285714207b43b055483e78faac25000000000000000000000000d56e4eab23cb81f43168f9f45211eb027b9ac7cc0000000000000000000000000000000000000000000000000000000000000000000000000000000000000000000000000000000000000000000000000000000200000000000000000000000000000000000000000000000000000225d552830000000000000000000000000000000000000000000000000000000225d5528300",
              "blockHash": "0x3502342ce8dfbb984ddd9f52aa21c53616bfca4910ecc37bab472d316bdd7cfe",
              "blockNumber": "0x198d96f",
              "transactionHash": "0x270ba39a3a10d636edf58d84a3b1cc3ead93aadb3cd36ed847cd4d6d04e7ab74",
              "transactionIndex": "0x7f",
              "logIndex": "0x175",
              "removed": false
            },
            {
              "address": "0x1a44076050125825900e736c501f859c50fe728c",
              "topics": [
                "0x1ab700d4ced0c005b164c0f789fd09fcbb0156d4c2041b8a3bfbcd961cd1567f"
              ],
              "data": "0x00000000000000000000000000000000000000000000000000000000000000600000000000000000000000000000000000000000000000000000000000000140000000000000000000000000b5320b0b3a13cc860893e2bd79fcd7e13484dda200000000000000000000000000000000000000000000000000000000000000a8010000000000000001000075e8000000000000000000000000f411498156a6219a97356a5f40170a2313f8653c0000759e000000000000000000000000397411cd0dd9156ade29fe8f65160cf402df5e5c7cc3e0e87703110595ebeef939ca05250c429f2dae5b5d96092476c585b52e1b001fd4e198baf6e6d035eb065ec154c91ac73f5b7500014b6b0d7cf954546ce5bb1f70585a7b043269e04560d1f32e17f7cd92210f91b5000000000000000000000000000000000000000000000000000000000000000000000000000000000000000000000000000000000000001600030100110100000000000000000000000000030d4000000000000000000000",
              "blockHash": "0x3502342ce8dfbb984ddd9f52aa21c53616bfca4910ecc37bab472d316bdd7cfe",
              "blockNumber": "0x198d96f",
              "transactionHash": "0x270ba39a3a10d636edf58d84a3b1cc3ead93aadb3cd36ed847cd4d6d04e7ab74",
              "transactionIndex": "0x7f",
              "logIndex": "0x176",
              "removed": false
            },
            {
              "address": "0xf411498156a6219a97356a5f40170a2313f8653c",
              "topics": [
                "0xfa636c2e3db9c4a50080ee4305952c55a6b6c200807847530dc5950fed59d05a"
              ],
              "data": "0x000000000000000000000000000000000000000000000000000000000000759e0000000000000000000000001fd4e198baf6e6d035eb065ec154c91ac73f5b7500000000000000000000000000000000000000000000000000000000000000600000000000000000000000000000000000000000000000000000000000000037001fd4e198baf6e6d035eb065ec154c91ac73f5b7500014b6b0d7cf954546ce5bb1f70585a7b043269e04560d1f32e17f7cd92210f91b5000000000000000000",
              "blockHash": "0x3502342ce8dfbb984ddd9f52aa21c53616bfca4910ecc37bab472d316bdd7cfe",
              "blockNumber": "0x198d96f",
              "transactionHash": "0x270ba39a3a10d636edf58d84a3b1cc3ead93aadb3cd36ed847cd4d6d04e7ab74",
              "transactionIndex": "0x7f",
              "logIndex": "0x177",
              "removed": false
            }
          ],
          "logsBloom": "0x00000000000000000100000000000000000000000000000000000000001000000000000000000000000000000000000000000000200000000000000000000000000000000000002001000400000000000000000000000000000000000000000100000000000000008000000000000000000000000010000000000000000000000000000000000000000000080000000000000000000000000004000000000000000000008000000000100000000000000004200000400000000440000000000000000000000000000000000000000000000000000000000000000000000000000000040000000000000000000000002000000000010000000000000000000000",
          "type": "0x2",
          "transactionHash": "0x270ba39a3a10d636edf58d84a3b1cc3ead93aadb3cd36ed847cd4d6d04e7ab74",
          "transactionIndex": "0x7f",
          "blockHash": "0x3502342ce8dfbb984ddd9f52aa21c53616bfca4910ecc37bab472d316bdd7cfe",
          "blockNumber": "0x198d96f",
          "gasUsed": "0x47c61",
          "effectiveGasPrice": "0x1b92f9",
          "from": "0x1fd4e198baf6e6d035eb065ec154c91ac73f5b75",
          "to": "0xf411498156a6219a97356a5f40170a2313f8653c",
          "contractAddress": null,
          "l1BaseFeeScalar": "0x8dd",
          "l1BlobBaseFee": "0x10fc4",
          "l1BlobBaseFeeScalar": "0x101c12",
          "l1Fee": "0xa870722a",
          "l1GasPrice": "0x26a4515f",
          "l1GasUsed": "0x77b"
        }
      ],
      "libraries": [],
      "pending": [],
      "returns": {},
      "timestamp": 1740378030,
      "chain": 8453,
      "commit": "4e93677"
    }
  ],
  "timestamp": 1740378055
}