{
  "deployments": [
    {
      "transactions": [
        {
          "hash": null,
          "transactionType": "CALL",
          "contractName": null,
          "contractAddress": "0xa0f7ae56e24a269f71bbf1bf3deb5b1e741492c9",
          "function": "approve(address,uint256)",
          "arguments": [
            "0x4F9F184A7f06eBE299dde44064f58151aBBd134f",
            "1000000000000000000"
          ],
          "transaction": {
            "from": "0x1fd4e198baf6e6d035eb065ec154c91ac73f5b75",
            "to": "0xa0f7ae56e24a269f71bbf1bf3deb5b1e741492c9",
            "gas": "0xec52",
            "value": "0x0",
            "input": "0x095ea7b30000000000000000000000004f9f184a7f06ebe299dde44064f58151abbd134f0000000000000000000000000000000000000000000000000de0b6b3a7640000",
            "nonce": "0x39",
            "chainId": "0x66eee"
          },
          "additionalContracts": [],
          "isFixedGasLimit": false
        },
        {
          "hash": null,
          "transactionType": "CALL",
          "contractName": null,
          "contractAddress": "0x4f9f184a7f06ebe299dde44064f58151abbd134f",
          "function": "deposit(bytes,address,(address,address,address,address,address,uint256,uint256,uint256,uint256,uint32,uint32,uint16),bytes)",
          "arguments": [
            "0x",
            "0x0000000000000000000000000000000000000000",
            "(0x1Fd4e198bAF6e6d035eB065Ec154c91AC73F5b75, 0x1Fd4e198bAF6e6d035eB065Ec154c91AC73F5b75, 0xA0F7Ae56E24A269f71BBF1BF3DeB5b1E741492C9, 0x6e56e17a9Ac93bd42F5C02613D24025327d0497E, 0x0000000000000000000000000000000000000000, 1000000000000000000, 1000000000000000000, 1739903749, 1739911049, 40231, 40161, 0)",
            "0x"
          ],
          "transaction": {
            "from": "0x1fd4e198baf6e6d035eb065ec154c91ac73f5b75",
            "to": "0x4f9f184a7f06ebe299dde44064f58151abbd134f",
            "gas": "0x5fdf3",
            "value": "0x0",
            "input": "0xe41d318f00000000000000000000000000000000000000000000000000000000000001e000000000000000000000000000000000000000000000000000000000000000000000000000000000000000001fd4e198baf6e6d035eb065ec154c91ac73f5b750000000000000000000000001fd4e198baf6e6d035eb065ec154c91ac73f5b75000000000000000000000000a0f7ae56e24a269f71bbf1bf3deb5b1e741492c90000000000000000000000006e56e17a9ac93bd42f5c02613d24025327d0497e00000000000000000000000000000000000000000000000000000000000000000000000000000000000000000000000000000000000000000de0b6b3a76400000000000000000000000000000000000000000000000000000de0b6b3a76400000000000000000000000000000000000000000000000000000000000067b4d3050000000000000000000000000000000000000000000000000000000067b4ef890000000000000000000000000000000000000000000000000000000000009d270000000000000000000000000000000000000000000000000000000000009ce10000000000000000000000000000000000000000000000000000000000000000000000000000000000000000000000000000000000000000000000000000020000000000000000000000000000000000000000000000000000000000000000000000000000000000000000000000000000000000000000000000000000000000",
            "nonce": "0x3a",
            "chainId": "0x66eee"
          },
          "additionalContracts": [],
          "isFixedGasLimit": false
        }
      ],
      "receipts": [],
      "libraries": [],
      "pending": [],
      "returns": {},
      "timestamp": 1739903871,
      "chain": 421614,
      "commit": "05b6e60"
    },
    {
      "transactions": [
        {
          "hash": null,
          "transactionType": "CALL",
          "contractName": null,
          "contractAddress": "0x6e56e17a9ac93bd42f5c02613d24025327d0497e",
          "function": "approve(address,uint256)",
          "arguments": [
            "0x5E155644e7C78503637B4440F9a02FDC3be254dF",
            "1000000000000000000"
          ],
          "transaction": {
            "from": "0x1fd4e198baf6e6d035eb065ec154c91ac73f5b75",
            "to": "0x6e56e17a9ac93bd42f5c02613d24025327d0497e",
            "gas": "0x107ad",
            "value": "0x0",
            "input": "0x095ea7b30000000000000000000000005e155644e7c78503637b4440f9a02fdc3be254df0000000000000000000000000000000000000000000000000de0b6b3a7640000",
            "nonce": "0x67",
            "chainId": "0xaa36a7"
          },
          "additionalContracts": [],
          "isFixedGasLimit": false
        },
        {
          "hash": null,
          "transactionType": "CALL",
          "contractName": null,
          "contractAddress": "0x5e155644e7c78503637b4440f9a02fdc3be254df",
          "function": "fill(bytes,address,(address,address,address,address,address,uint256,uint256,uint256,uint256,uint32,uint32,uint16))",
          "arguments": [
            "0x",
            "0x0000000000000000000000000000000000000000",
            "(0x1Fd4e198bAF6e6d035eB065Ec154c91AC73F5b75, 0x1Fd4e198bAF6e6d035eB065Ec154c91AC73F5b75, 0xA0F7Ae56E24A269f71BBF1BF3DeB5b1E741492C9, 0x6e56e17a9Ac93bd42F5C02613D24025327d0497E, 0x0000000000000000000000000000000000000000, 1000000000000000000, 1000000000000000000, 1739903749, 1739911049, 40231, 40161, 0)"
          ],
          "transaction": {
            "from": "0x1fd4e198baf6e6d035eb065ec154c91ac73f5b75",
            "to": "0x5e155644e7c78503637b4440f9a02fdc3be254df",
            "gas": "0x2201d",
            "value": "0x0",
            "input": "0x4011625600000000000000000000000000000000000000000000000000000000000001c000000000000000000000000000000000000000000000000000000000000000000000000000000000000000001fd4e198baf6e6d035eb065ec154c91ac73f5b750000000000000000000000001fd4e198baf6e6d035eb065ec154c91ac73f5b75000000000000000000000000a0f7ae56e24a269f71bbf1bf3deb5b1e741492c90000000000000000000000006e56e17a9ac93bd42f5c02613d24025327d0497e00000000000000000000000000000000000000000000000000000000000000000000000000000000000000000000000000000000000000000de0b6b3a76400000000000000000000000000000000000000000000000000000de0b6b3a76400000000000000000000000000000000000000000000000000000000000067b4d3050000000000000000000000000000000000000000000000000000000067b4ef890000000000000000000000000000000000000000000000000000000000009d270000000000000000000000000000000000000000000000000000000000009ce100000000000000000000000000000000000000000000000000000000000000000000000000000000000000000000000000000000000000000000000000000000",
            "nonce": "0x68",
            "chainId": "0xaa36a7"
          },
          "additionalContracts": [],
          "isFixedGasLimit": false
        },
        {
          "hash": null,
          "transactionType": "CALL",
          "contractName": null,
          "contractAddress": "0x5e155644e7c78503637b4440f9a02fdc3be254df",
          "function": "settle(uint32,address,bytes)",
          "arguments": [
            "40231",
            "0x1Fd4e198bAF6e6d035eB065Ec154c91AC73F5b75",
            "0x00030100110100000000000000000000000000030d40"
          ],
          "transaction": {
            "from": "0x1fd4e198baf6e6d035eb065ec154c91ac73f5b75",
            "to": "0x5e155644e7c78503637b4440f9a02fdc3be254df",
            "gas": "0x5c3dc",
            "value": "0x16345785d8a0000",
            "input": "0x2c85455b0000000000000000000000000000000000000000000000000000000000009d270000000000000000000000001fd4e198baf6e6d035eb065ec154c91ac73f5b750000000000000000000000000000000000000000000000000000000000000060000000000000000000000000000000000000000000000000000000000000001600030100110100000000000000000000000000030d4000000000000000000000",
            "nonce": "0x69",
            "chainId": "0xaa36a7"
          },
          "additionalContracts": [],
          "isFixedGasLimit": false
        }
      ],
      "receipts": [],
      "libraries": [],
      "pending": [],
      "returns": {},
      "timestamp": 1739903871,
      "chain": 11155111,
      "commit": "05b6e60"
    }
  ],
  "timestamp": 1739903871
}