{
  "deployments": [
    {
      "transactions": [
        {
          "hash": "0xf9a54b625dad28c464ca39187c5dd730b5a0971fcb2e949f04de1366deb017f1",
          "transactionType": "CALL",
          "contractName": null,
          "contractAddress": "0xa0f7ae56e24a269f71bbf1bf3deb5b1e741492c9",
          "function": "approve(address,uint256)",
          "arguments": [
            "0x4F9F184A7f06eBE299dde44064f58151aBBd134f",
            "1000000000000000000"
          ],
          "transaction": {
            "from": "0x1fd4e198baf6e6d035eb065ec154c91ac73f5b75",
            "to": "0xa0f7ae56e24a269f71bbf1bf3deb5b1e741492c9",
            "gas": "0xec52",
            "value": "0x0",
            "input": "0x095ea7b30000000000000000000000004f9f184a7f06ebe299dde44064f58151abbd134f0000000000000000000000000000000000000000000000000de0b6b3a7640000",
            "nonce": "0x3f",
            "chainId": "0x66eee"
          },
          "additionalContracts": [],
          "isFixedGasLimit": false
        },
        {
          "hash": "0x41fdabf4df3ca0f5433160a939c7862c22957c3aa98b15ee7377bd3069167e0d",
          "transactionType": "CALL",
          "contractName": null,
          "contractAddress": "0x4f9f184a7f06ebe299dde44064f58151abbd134f",
          "function": "deposit(bytes,address,(address,address,address,address,address,uint256,uint256,uint256,uint256,uint32,uint32,uint16),bytes)",
          "arguments": [
            "0x",
            "0x0000000000000000000000000000000000000000",
            "(0x1Fd4e198bAF6e6d035eB065Ec154c91AC73F5b75, 0x1Fd4e198bAF6e6d035eB065Ec154c91AC73F5b75, 0xA0F7Ae56E24A269f71BBF1BF3DeB5b1E741492C9, 0x6e56e17a9Ac93bd42F5C02613D24025327d0497E, 0x0000000000000000000000000000000000000000, 1000000000000000000, 1000000000000000000, 1739905001, 1739912301, 40231, 40161, 0)",
            "0x"
          ],
          "transaction": {
            "from": "0x1fd4e198baf6e6d035eb065ec154c91ac73f5b75",
            "to": "0x4f9f184a7f06ebe299dde44064f58151abbd134f",
            "gas": "0x5fdf3",
            "value": "0x0",
            "input": "0xe41d318f00000000000000000000000000000000000000000000000000000000000001e000000000000000000000000000000000000000000000000000000000000000000000000000000000000000001fd4e198baf6e6d035eb065ec154c91ac73f5b750000000000000000000000001fd4e198baf6e6d035eb065ec154c91ac73f5b75000000000000000000000000a0f7ae56e24a269f71bbf1bf3deb5b1e741492c90000000000000000000000006e56e17a9ac93bd42f5c02613d24025327d0497e00000000000000000000000000000000000000000000000000000000000000000000000000000000000000000000000000000000000000000de0b6b3a76400000000000000000000000000000000000000000000000000000de0b6b3a76400000000000000000000000000000000000000000000000000000000000067b4d7e90000000000000000000000000000000000000000000000000000000067b4f46d0000000000000000000000000000000000000000000000000000000000009d270000000000000000000000000000000000000000000000000000000000009ce10000000000000000000000000000000000000000000000000000000000000000000000000000000000000000000000000000000000000000000000000000020000000000000000000000000000000000000000000000000000000000000000000000000000000000000000000000000000000000000000000000000000000000",
            "nonce": "0x40",
            "chainId": "0x66eee"
          },
          "additionalContracts": [],
          "isFixedGasLimit": false
        }
      ],
      "receipts": [
        {
          "status": "0x1",
          "cumulativeGasUsed": "0x2d703",
          "logs": [
            {
              "address": "0xa0f7ae56e24a269f71bbf1bf3deb5b1e741492c9",
              "topics": [
                "0x8c5be1e5ebec7d5bd14f71427d1e84f3dd0314c0f7b2291e5b200ac8c7c3b925",
                "0x0000000000000000000000001fd4e198baf6e6d035eb065ec154c91ac73f5b75",
                "0x0000000000000000000000004f9f184a7f06ebe299dde44064f58151abbd134f"
              ],
              "data": "0x0000000000000000000000000000000000000000000000000de0b6b3a7640000",
              "blockHash": "0x8b36cdca83c1037c9ca9b54fa9c6a1ba208e8a920617f7094348281af64aaa72",
              "blockNumber": "0x773e4ef",
              "transactionHash": "0xf9a54b625dad28c464ca39187c5dd730b5a0971fcb2e949f04de1366deb017f1",
              "transactionIndex": "0x2",
              "logIndex": "0x2",
              "removed": false
            }
          ],
          "logsBloom": "0x00000000020000000000000000000000000000000000000000000000000000000000000000000000000000000000000000000000000000000000000000200000000000000000000000000000041000000000000000000000000000000000000000000000000000000000000000000000000000000000000000000000000000000010004000000000000000000000000000000000000000000000000000000000020000000000000000000000000000000000000000000000000020000004000000000000000000000000000000000000000000000008000001000000000000000010000000000000000000000000000000000000000000000000000000000000",
          "type": "0x2",
          "transactionHash": "0xf9a54b625dad28c464ca39187c5dd730b5a0971fcb2e949f04de1366deb017f1",
          "transactionIndex": "0x2",
          "blockHash": "0x8b36cdca83c1037c9ca9b54fa9c6a1ba208e8a920617f7094348281af64aaa72",
          "blockNumber": "0x773e4ef",
          "gasUsed": "0xb44b",
          "effectiveGasPrice": "0x5f5e100",
          "from": "0x1fd4e198baf6e6d035eb065ec154c91ac73f5b75",
          "to": "0xa0f7ae56e24a269f71bbf1bf3deb5b1e741492c9",
          "contractAddress": null
        },
        {
          "status": "0x1",
          "cumulativeGasUsed": "0x48f1b",
          "logs": [
            {
              "address": "0xa0f7ae56e24a269f71bbf1bf3deb5b1e741492c9",
              "topics": [
                "0xddf252ad1be2c89b69c2b068fc378daa952ba7f163c4a11628f55a4df523b3ef",
                "0x0000000000000000000000001fd4e198baf6e6d035eb065ec154c91ac73f5b75",
                "0x0000000000000000000000004f9f184a7f06ebe299dde44064f58151abbd134f"
              ],
              "data": "0x0000000000000000000000000000000000000000000000000de0b6b3a7640000",
              "blockHash": "0x3c40899b517181801085730073501c5b30f50d63aec9ab9841736e2606de34e1",
              "blockNumber": "0x773e4f1",
              "transactionHash": "0x41fdabf4df3ca0f5433160a939c7862c22957c3aa98b15ee7377bd3069167e0d",
              "transactionIndex": "0x2",
              "logIndex": "0x1",
              "removed": false
            },
            {
              "address": "0x4f9f184a7f06ebe299dde44064f58151abbd134f",
              "topics": [
                "0x1f6ba6056f778bc194a8335ecc8948fd546965262dc38d74ff5c5e08e93c5635"
              ],
              "data": "0x0000000000000000000000001fd4e198baf6e6d035eb065ec154c91ac73f5b750000000000000000000000001fd4e198baf6e6d035eb065ec154c91ac73f5b75000000000000000000000000a0f7ae56e24a269f71bbf1bf3deb5b1e741492c90000000000000000000000006e56e17a9ac93bd42f5c02613d24025327d0497e00000000000000000000000000000000000000000000000000000000000000000000000000000000000000000000000000000000000000000de0b6b3a76400000000000000000000000000000000000000000000000000000de0b6b3a76400000000000000000000000000000000000000000000000000000000000067b4d7e90000000000000000000000000000000000000000000000000000000067b4f46d0000000000000000000000000000000000000000000000000000000000009d270000000000000000000000000000000000000000000000000000000000009ce100000000000000000000000000000000000000000000000000000000000000003ad3f2d89cbee2f2ebca87a0aed345cc4b4fe7fa9a8e4db94c822f5d5d10d966",
              "blockHash": "0x3c40899b517181801085730073501c5b30f50d63aec9ab9841736e2606de34e1",
              "blockNumber": "0x773e4f1",
              "transactionHash": "0x41fdabf4df3ca0f5433160a939c7862c22957c3aa98b15ee7377bd3069167e0d",
              "transactionIndex": "0x2",
              "logIndex": "0x2",
              "removed": false
            }
          ],
          "logsBloom": "0x00000000020000000000000000000000000000000000000000000000000000000000000000000000000000000000000000000000000000000000000000000000000000000000000000000008041000000000000000000000000000000000000000000000000000000000000000000000000000080000000000000010000000080010004000000000000000000000000000000000000000000000000000000000000000000000000000000000000000000000000000000000000020000004000008000002000000000000000000000000000010000008000001000000000000000000000000000000000000000100000000000040000000000000000000000000",
          "type": "0x2",
          "transactionHash": "0x41fdabf4df3ca0f5433160a939c7862c22957c3aa98b15ee7377bd3069167e0d",
          "transactionIndex": "0x2",
          "blockHash": "0x3c40899b517181801085730073501c5b30f50d63aec9ab9841736e2606de34e1",
          "blockNumber": "0x773e4f1",
          "gasUsed": "0x418db",
          "effectiveGasPrice": "0x5f5e100",
          "from": "0x1fd4e198baf6e6d035eb065ec154c91ac73f5b75",
          "to": "0x4f9f184a7f06ebe299dde44064f58151abbd134f",
          "contractAddress": null
        }
      ],
      "libraries": [],
      "pending": [],
      "returns": {},
      "timestamp": 1739905116,
      "chain": 421614,
      "commit": "05b6e60"
    },
    {
      "transactions": [
        {
          "hash": "0x2bcd94c30458c8e02e95de2e695048dfb14fd933cbb2aa436f76f58af247340c",
          "transactionType": "CALL",
          "contractName": null,
          "contractAddress": "0x6e56e17a9ac93bd42f5c02613d24025327d0497e",
          "function": "mint(address,uint256)",
          "arguments": [
            "0xf488bA1fe8b0523E863ddA6a5f7d19F2bAC00188",
            "100000000000000000000"
          ],
          "transaction": {
            "from": "0xf488ba1fe8b0523e863dda6a5f7d19f2bac00188",
            "to": "0x6e56e17a9ac93bd42f5c02613d24025327d0497e",
            "gas": "0xb800",
            "value": "0x0",
            "input": "0x40c10f19000000000000000000000000f488ba1fe8b0523e863dda6a5f7d19f2bac001880000000000000000000000000000000000000000000000056bc75e2d63100000",
            "nonce": "0x2",
            "chainId": "0xaa36a7"
          },
          "additionalContracts": [],
          "isFixedGasLimit": false
        },
        {
          "hash": "0x682d88f98e434f56864f5ce89f4c7f8cf9078575b10562867c02b4e51a3344b0",
          "transactionType": "CALL",
          "contractName": null,
          "contractAddress": "0x6e56e17a9ac93bd42f5c02613d24025327d0497e",
          "function": "approve(address,uint256)",
          "arguments": [
            "0x5E155644e7C78503637B4440F9a02FDC3be254dF",
            "100000000000000000000"
          ],
          "transaction": {
            "from": "0xf488ba1fe8b0523e863dda6a5f7d19f2bac00188",
            "to": "0x6e56e17a9ac93bd42f5c02613d24025327d0497e",
            "gas": "0x960f",
            "value": "0x0",
            "input": "0x095ea7b30000000000000000000000005e155644e7c78503637b4440f9a02fdc3be254df0000000000000000000000000000000000000000000000056bc75e2d63100000",
            "nonce": "0x3",
            "chainId": "0xaa36a7"
          },
          "additionalContracts": [],
          "isFixedGasLimit": false
        },
        {
          "hash": "0xfed861ba8778254f3732cc6ce0303acebf314fac6e6a57d797cb3bc5bcff270b",
          "transactionType": "CALL",
          "contractName": null,
          "contractAddress": "0x5e155644e7c78503637b4440f9a02fdc3be254df",
          "function": "fill(bytes,address,(address,address,address,address,address,uint256,uint256,uint256,uint256,uint32,uint32,uint16))",
          "arguments": [
            "0x",
            "0x0000000000000000000000000000000000000000",
            "(0x1Fd4e198bAF6e6d035eB065Ec154c91AC73F5b75, 0x1Fd4e198bAF6e6d035eB065Ec154c91AC73F5b75, 0xA0F7Ae56E24A269f71BBF1BF3DeB5b1E741492C9, 0x6e56e17a9Ac93bd42F5C02613D24025327d0497E, 0x0000000000000000000000000000000000000000, 1000000000000000000, 1000000000000000000, 1739905001, 1739912301, 40231, 40161, 0)"
          ],
          "transaction": {
            "from": "0xf488ba1fe8b0523e863dda6a5f7d19f2bac00188",
            "to": "0x5e155644e7c78503637b4440f9a02fdc3be254df",
            "gas": "0x2e8a8",
            "value": "0x0",
            "input": "0x4011625600000000000000000000000000000000000000000000000000000000000001c000000000000000000000000000000000000000000000000000000000000000000000000000000000000000001fd4e198baf6e6d035eb065ec154c91ac73f5b750000000000000000000000001fd4e198baf6e6d035eb065ec154c91ac73f5b75000000000000000000000000a0f7ae56e24a269f71bbf1bf3deb5b1e741492c90000000000000000000000006e56e17a9ac93bd42f5c02613d24025327d0497e00000000000000000000000000000000000000000000000000000000000000000000000000000000000000000000000000000000000000000de0b6b3a76400000000000000000000000000000000000000000000000000000de0b6b3a76400000000000000000000000000000000000000000000000000000000000067b4d7e90000000000000000000000000000000000000000000000000000000067b4f46d0000000000000000000000000000000000000000000000000000000000009d270000000000000000000000000000000000000000000000000000000000009ce100000000000000000000000000000000000000000000000000000000000000000000000000000000000000000000000000000000000000000000000000000000",
            "nonce": "0x4",
            "chainId": "0xaa36a7"
          },
          "additionalContracts": [],
          "isFixedGasLimit": false
        },
        {
          "hash": "0x27d8f3a8102267b371473d0b9cabdfd1ee8b151067b2f20d9c50ebc84e7f6456",
          "transactionType": "CALL",
          "contractName": null,
          "contractAddress": "0x5e155644e7c78503637b4440f9a02fdc3be254df",
          "function": "settle(uint32,address,bytes)",
          "arguments": [
            "40231",
            "0xf488bA1fe8b0523E863ddA6a5f7d19F2bAC00188",
            "0x00030100110100000000000000000000000000030d40"
          ],
          "transaction": {
            "from": "0xf488ba1fe8b0523e863dda6a5f7d19f2bac00188",
            "to": "0x5e155644e7c78503637b4440f9a02fdc3be254df",
            "gas": "0x52162",
            "value": "0x16345785d8a0000",
            "input": "0x2c85455b0000000000000000000000000000000000000000000000000000000000009d27000000000000000000000000f488ba1fe8b0523e863dda6a5f7d19f2bac001880000000000000000000000000000000000000000000000000000000000000060000000000000000000000000000000000000000000000000000000000000001600030100110100000000000000000000000000030d4000000000000000000000",
            "nonce": "0x5",
            "chainId": "0xaa36a7"
          },
          "additionalContracts": [],
          "isFixedGasLimit": false
        }
      ],
      "receipts": [
        {
          "status": "0x1",
          "cumulativeGasUsed": "0x88711b",
          "logs": [
            {
              "address": "0x6e56e17a9ac93bd42f5c02613d24025327d0497e",
              "topics": [
                "0xddf252ad1be2c89b69c2b068fc378daa952ba7f163c4a11628f55a4df523b3ef",
                "0x0000000000000000000000000000000000000000000000000000000000000000",
                "0x000000000000000000000000f488ba1fe8b0523e863dda6a5f7d19f2bac00188"
              ],
              "data": "0x0000000000000000000000000000000000000000000000056bc75e2d63100000",
              "blockHash": "0x248fc445755d056e686e9c5d471f401fe3d9bd3d414df40ddbd07d4bb0f6a729",
              "blockNumber": "0x76097a",
              "transactionHash": "0x2bcd94c30458c8e02e95de2e695048dfb14fd933cbb2aa436f76f58af247340c",
              "transactionIndex": "0x74",
              "logIndex": "0x79",
              "removed": false
            }
          ],
          "logsBloom": "0x00000000000000020000000000000000000000000000000000000000000000000000000000000000000000000000000000000000000000000000000000000000800000000000000000000008000000000000000000000000400000000000000000000000020000000000000000000800000000000000000000000010000000000000000000000000000000000000000000000000000000000000000000000000000000000000000000000000000000000000001000000000000000000000000000000002000000000000000000000000000000000000000000000000000020000000040000000000000000000000000000000000000004000000000000000000",
          "type": "0x2",
          "transactionHash": "0x2bcd94c30458c8e02e95de2e695048dfb14fd933cbb2aa436f76f58af247340c",
          "transactionIndex": "0x74",
          "blockHash": "0x248fc445755d056e686e9c5d471f401fe3d9bd3d414df40ddbd07d4bb0f6a729",
          "blockNumber": "0x76097a",
          "gasUsed": "0x8537",
          "effectiveGasPrice": "0x33ab65ed",
          "from": "0xf488ba1fe8b0523e863dda6a5f7d19f2bac00188",
          "to": "0x6e56e17a9ac93bd42f5c02613d24025327d0497e",
          "contractAddress": null
        },
        {
          "status": "0x1",
          "cumulativeGasUsed": "0x9234c8",
          "logs": [
            {
              "address": "0x6e56e17a9ac93bd42f5c02613d24025327d0497e",
              "topics": [
                "0x8c5be1e5ebec7d5bd14f71427d1e84f3dd0314c0f7b2291e5b200ac8c7c3b925",
                "0x000000000000000000000000f488ba1fe8b0523e863dda6a5f7d19f2bac00188",
                "0x0000000000000000000000005e155644e7c78503637b4440f9a02fdc3be254df"
              ],
              "data": "0x0000000000000000000000000000000000000000000000056bc75e2d63100000",
              "blockHash": "0xb7f4d31141779c4bc9f1c6fa7c304f3a7847c38a0cfb75487701860a7e235bdc",
              "blockNumber": "0x76097b",
              "transactionHash": "0x682d88f98e434f56864f5ce89f4c7f8cf9078575b10562867c02b4e51a3344b0",
              "transactionIndex": "0x76",
              "logIndex": "0x8b",
              "removed": false
            }
          ],
          "logsBloom": "0x00000000000000020000000000000000000000000000000000000000000000000000000000000000000000000000000000000000000000000000000000200000800000000000000000000000000000000000000000000000400000000000000000000000000000000000000000000000800000000000000000000000000000000000000000000000000000000000000000000000000000000000000000000000020000000000000000000000000000000000001000000000000000000000000000000000000000000000000000000000000000000000000000000000000000000010040000080000000000000000000000000000001004000000000000000000",
          "type": "0x2",
          "transactionHash": "0x682d88f98e434f56864f5ce89f4c7f8cf9078575b10562867c02b4e51a3344b0",
          "transactionIndex": "0x76",
          "blockHash": "0xb7f4d31141779c4bc9f1c6fa7c304f3a7847c38a0cfb75487701860a7e235bdc",
          "blockNumber": "0x76097b",
          "gasUsed": "0x669b",
          "effectiveGasPrice": "0x352fbe8a",
          "from": "0xf488ba1fe8b0523e863dda6a5f7d19f2bac00188",
          "to": "0x6e56e17a9ac93bd42f5c02613d24025327d0497e",
          "contractAddress": null
        },
        {
          "status": "0x1",
          "cumulativeGasUsed": "0x8bf3e8",
          "logs": [
            {
              "address": "0x6e56e17a9ac93bd42f5c02613d24025327d0497e",
              "topics": [
                "0xddf252ad1be2c89b69c2b068fc378daa952ba7f163c4a11628f55a4df523b3ef",
                "0x000000000000000000000000f488ba1fe8b0523e863dda6a5f7d19f2bac00188",
                "0x0000000000000000000000001fd4e198baf6e6d035eb065ec154c91ac73f5b75"
              ],
              "data": "0x0000000000000000000000000000000000000000000000000de0b6b3a7640000",
              "blockHash": "0xefc875e8b8313f36fec11cfde286eb80cb929febc1a735913f79860c88c9a665",
              "blockNumber": "0x76097c",
              "transactionHash": "0xfed861ba8778254f3732cc6ce0303acebf314fac6e6a57d797cb3bc5bcff270b",
              "transactionIndex": "0x6a",
              "logIndex": "0x8f",
              "removed": false
            },
            {
              "address": "0x5e155644e7c78503637b4440f9a02fdc3be254df",
              "topics": [
                "0xa4e4b420840134845f8f909491203de187c857b1347967c28b77efd3f2df105c"
              ],
              "data": "0x0000000000000000000000001fd4e198baf6e6d035eb065ec154c91ac73f5b750000000000000000000000001fd4e198baf6e6d035eb065ec154c91ac73f5b75000000000000000000000000a0f7ae56e24a269f71bbf1bf3deb5b1e741492c90000000000000000000000006e56e17a9ac93bd42f5c02613d24025327d0497e00000000000000000000000000000000000000000000000000000000000000000000000000000000000000000000000000000000000000000de0b6b3a76400000000000000000000000000000000000000000000000000000de0b6b3a76400000000000000000000000000000000000000000000000000000000000067b4d7e90000000000000000000000000000000000000000000000000000000067b4f46d0000000000000000000000000000000000000000000000000000000000009d270000000000000000000000000000000000000000000000000000000000009ce10000000000000000000000000000000000000000000000000000000000000000",
              "blockHash": "0xefc875e8b8313f36fec11cfde286eb80cb929febc1a735913f79860c88c9a665",
              "blockNumber": "0x76097c",
              "transactionHash": "0xfed861ba8778254f3732cc6ce0303acebf314fac6e6a57d797cb3bc5bcff270b",
              "transactionIndex": "0x6a",
              "logIndex": "0x90",
              "removed": false
            }
          ],
          "logsBloom": "0x00000000020080020000000000000000000000000000000000000000000000000000000000000000000000000000000000000000000000000000000000000000800000000000000000000008040040000000000000000000400000000000000000000000000000000000000000000000000000000000000000000010000000000000004000000000000000000000000000000000000000000000000000000010000000000000000000000080000000000000001000000000000000000000000000000002000000000000000000800000000000000000000000000000000000000000040000000000000001000000000000000000000004000000000000000000",
          "type": "0x2",
          "transactionHash": "0xfed861ba8778254f3732cc6ce0303acebf314fac6e6a57d797cb3bc5bcff270b",
          "transactionIndex": "0x6a",
          "blockHash": "0xefc875e8b8313f36fec11cfde286eb80cb929febc1a735913f79860c88c9a665",
          "blockNumber": "0x76097c",
          "gasUsed": "0x1fd2b",
          "effectiveGasPrice": "0x3525d272",
          "from": "0xf488ba1fe8b0523e863dda6a5f7d19f2bac00188",
          "to": "0x5e155644e7c78503637b4440f9a02fdc3be254df",
          "contractAddress": null
        },
        {
          "status": "0x1",
          "cumulativeGasUsed": "0xa56cad",
          "logs": [
            {
              "address": "0xcc1ae8cf5d3904cef3360a9532b477529b177cce",
              "topics": [
                "0x61ed099e74a97a1d7f8bb0952a88ca8b7b8ebd00c126ea04671f92a81213318a"
              ],
              "data": "0x000000000000000000000000718b92b5cb0a5552039b593faf724d182a881eda00000000000000000000000000000000000000000000000000005ac03624bfc8",
              "blockHash": "0xde7a555bb3f6dad5cc84fd7f411eff7f2bf50c57f6c0355a1763ab27168dc634",
              "blockNumber": "0x76097d",
              "transactionHash": "0x27d8f3a8102267b371473d0b9cabdfd1ee8b151067b2f20d9c50ebc84e7f6456",
              "transactionIndex": "0x6c",
              "logIndex": "0xa0",
              "removed": false
            },
            {
              "address": "0xcc1ae8cf5d3904cef3360a9532b477529b177cce",
              "topics": [
                "0x07ea52d82345d6e838192107d8fd7123d9c2ec8e916cd0aad13fd2b60db24644"
              ],
              "data": "0x000000000000000000000000000000000000000000000000000000000000006000000000000000000000000000000000000000000000000000000000000000a000000000000000000000000000000000000000000000000000000000000000c000000000000000000000000000000000000000000000000000000000000000010000000000000000000000008eebf8b423b73bfca51a1db4b7354aa0bfca91930000000000000000000000000000000000000000000000000000000000000000000000000000000000000000000000000000000000000000000000000000000100000000000000000000000000000000000000000000000000000c2c80d35d30",
              "blockHash": "0xde7a555bb3f6dad5cc84fd7f411eff7f2bf50c57f6c0355a1763ab27168dc634",
              "blockNumber": "0x76097d",
              "transactionHash": "0x27d8f3a8102267b371473d0b9cabdfd1ee8b151067b2f20d9c50ebc84e7f6456",
              "transactionIndex": "0x6c",
              "logIndex": "0xa1",
              "removed": false
            },
            {
              "address": "0x6edce65403992e310a62460808c4b910d972f10f",
              "topics": [
                "0x1ab700d4ced0c005b164c0f789fd09fcbb0156d4c2041b8a3bfbcd961cd1567f"
              ],
              "data": "0x00000000000000000000000000000000000000000000000000000000000000600000000000000000000000000000000000000000000000000000000000000140000000000000000000000000cc1ae8cf5d3904cef3360a9532b477529b177cce00000000000000000000000000000000000000000000000000000000000000a801000000000000000200009ce10000000000000000000000005e155644e7c78503637b4440f9a02fdc3be254df00009d270000000000000000000000004f9f184a7f06ebe299dde44064f58151abbd134ff322df24a2d3e8e5f36ffbffcef76288f9e721b7a56ff0f01c8a8282710cbd2f00f488ba1fe8b0523e863dda6a5f7d19f2bac0018800013ad3f2d89cbee2f2ebca87a0aed345cc4b4fe7fa9a8e4db94c822f5d5d10d966000000000000000000000000000000000000000000000000000000000000000000000000000000000000000000000000000000000000001600030100110100000000000000000000000000030d4000000000000000000000",
              "blockHash": "0xde7a555bb3f6dad5cc84fd7f411eff7f2bf50c57f6c0355a1763ab27168dc634",
              "blockNumber": "0x76097d",
              "transactionHash": "0x27d8f3a8102267b371473d0b9cabdfd1ee8b151067b2f20d9c50ebc84e7f6456",
              "transactionIndex": "0x6c",
              "logIndex": "0xa2",
              "removed": false
            },
            {
              "address": "0x5e155644e7c78503637b4440f9a02fdc3be254df",
              "topics": [
                "0xfa636c2e3db9c4a50080ee4305952c55a6b6c200807847530dc5950fed59d05a"
              ],
              "data": "0x0000000000000000000000000000000000000000000000000000000000009d27000000000000000000000000f488ba1fe8b0523e863dda6a5f7d19f2bac001880000000000000000000000000000000000000000000000000000000000000060000000000000000000000000000000000000000000000000000000000000003700f488ba1fe8b0523e863dda6a5f7d19f2bac0018800013ad3f2d89cbee2f2ebca87a0aed345cc4b4fe7fa9a8e4db94c822f5d5d10d966000000000000000000",
              "blockHash": "0xde7a555bb3f6dad5cc84fd7f411eff7f2bf50c57f6c0355a1763ab27168dc634",
              "blockNumber": "0x76097d",
              "transactionHash": "0x27d8f3a8102267b371473d0b9cabdfd1ee8b151067b2f20d9c50ebc84e7f6456",
              "transactionIndex": "0x6c",
              "logIndex": "0xa3",
              "removed": false
            }
          ],
          "logsBloom": "0x00000000000080000000000000000000000000000000000000000000000100000000000000000000200000000000000000000000000000000000000000000000000000000000002001000000000040000000000000000000000000000000000000000000000000008200000000000000000000000000000000000000000000000000000000000020000000080000000000000000000000000000000000000000000000008000000000100080000000000000200000400000000440000000000000000000000000000000000000000000000000080000000000000000000000000000040000000000000000000000002000000000000000000000000000000020",
          "type": "0x2",
          "transactionHash": "0x27d8f3a8102267b371473d0b9cabdfd1ee8b151067b2f20d9c50ebc84e7f6456",
          "transactionIndex": "0x6c",
          "blockHash": "0xde7a555bb3f6dad5cc84fd7f411eff7f2bf50c57f6c0355a1763ab27168dc634",
          "blockNumber": "0x76097d",
          "gasUsed": "0x3820b",
          "effectiveGasPrice": "0x34ef23d4",
          "from": "0xf488ba1fe8b0523e863dda6a5f7d19f2bac00188",
          "to": "0x5e155644e7c78503637b4440f9a02fdc3be254df",
          "contractAddress": null
        }
      ],
      "libraries": [],
      "pending": [],
      "returns": {},
      "timestamp": 1739905117,
      "chain": 11155111,
      "commit": "05b6e60"
    }
  ],
  "timestamp": 1739905171
}