{
  "deployments": [
    {
      "transactions": [
        {
          "hash": "0xd82319c0b7afe04f83d177fbb86fc9808dcc6c47ef92079f27fd0faa2dd32704",
          "transactionType": "CALL",
          "contractName": null,
          "contractAddress": "0xa0f7ae56e24a269f71bbf1bf3deb5b1e741492c9",
          "function": "approve(address,uint256)",
          "arguments": [
            "0xD030BfC9649af3f008f8465427Ffffab2DDd20d7",
            "1000000000000000000"
          ],
          "transaction": {
            "from": "0xf488ba1fe8b0523e863dda6a5f7d19f2bac00188",
            "to": "0xa0f7ae56e24a269f71bbf1bf3deb5b1e741492c9",
            "gas": "0xec52",
            "value": "0x0",
            "input": "0x095ea7b3000000000000000000000000d030bfc9649af3f008f8465427ffffab2ddd20d70000000000000000000000000000000000000000000000000de0b6b3a7640000",
            "nonce": "0x1",
            "chainId": "0x66eee"
          },
          "additionalContracts": [],
          "isFixedGasLimit": false
        },
        {
          "hash": "0x71af0f051e8f395879b4c84782d1c51c6b75317a414baef911104fe0c30543ed",
          "transactionType": "CALL",
          "contractName": null,
          "contractAddress": "0xd030bfc9649af3f008f8465427ffffab2ddd20d7",
          "function": "deposit((address,address,address,address,address,uint256,uint256,uint256,uint256,uint32,uint32,uint16),bytes,(address,address,bytes))",
          "arguments": [
            "(0xf488bA1fe8b0523E863ddA6a5f7d19F2bAC00188, 0xf488bA1fe8b0523E863ddA6a5f7d19F2bAC00188, 0xA0F7Ae56E24A269f71BBF1BF3DeB5b1E741492C9, 0x6e56e17a9Ac93bd42F5C02613D24025327d0497E, 0x0000000000000000000000000000000000000000, 1000000000000000000, 1000000000000000000, 1740359837, 1740367137, 40231, 40161, 0)",
            "0xfe35a2c5fdc2b7472d30b13a28e18c1a34dc8cd31fca339acd5d8e2c5fdf4b5c46d1b163e4162ba28b325cb4dc6cae93742a8753af2870013925538af864cd7e1b",
            "(0x0000000000000000000000000000000000000000, 0xA0F7Ae56E24A269f71BBF1BF3DeB5b1E741492C9, 0x)"
          ],
          "transaction": {
            "from": "0xf488ba1fe8b0523e863dda6a5f7d19f2bac00188",
            "to": "0xd030bfc9649af3f008f8465427ffffab2ddd20d7",
            "gas": "0x60fb3",
            "value": "0x0",
            "input": "0xe14edf9d000000000000000000000000f488ba1fe8b0523e863dda6a5f7d19f2bac00188000000000000000000000000f488ba1fe8b0523e863dda6a5f7d19f2bac00188000000000000000000000000a0f7ae56e24a269f71bbf1bf3deb5b1e741492c90000000000000000000000006e56e17a9ac93bd42f5c02613d24025327d0497e00000000000000000000000000000000000000000000000000000000000000000000000000000000000000000000000000000000000000000de0b6b3a76400000000000000000000000000000000000000000000000000000de0b6b3a76400000000000000000000000000000000000000000000000000000000000067bbc89d0000000000000000000000000000000000000000000000000000000067bbe5210000000000000000000000000000000000000000000000000000000000009d270000000000000000000000000000000000000000000000000000000000009ce1000000000000000000000000000000000000000000000000000000000000000000000000000000000000000000000000000000000000000000000000000001c000000000000000000000000000000000000000000000000000000000000002400000000000000000000000000000000000000000000000000000000000000041fe35a2c5fdc2b7472d30b13a28e18c1a34dc8cd31fca339acd5d8e2c5fdf4b5c46d1b163e4162ba28b325cb4dc6cae93742a8753af2870013925538af864cd7e1b000000000000000000000000000000000000000000000000000000000000000000000000000000000000000000000000000000000000000000000000000000000000000000000000000000a0f7ae56e24a269f71bbf1bf3deb5b1e741492c900000000000000000000000000000000000000000000000000000000000000600000000000000000000000000000000000000000000000000000000000000000",
            "nonce": "0x2",
            "chainId": "0x66eee"
          },
          "additionalContracts": [],
          "isFixedGasLimit": false
        }
      ],
      "receipts": [
        {
          "status": "0x1",
          "cumulativeGasUsed": "0xb44b",
          "logs": [
            {
              "address": "0xa0f7ae56e24a269f71bbf1bf3deb5b1e741492c9",
              "topics": [
                "0x8c5be1e5ebec7d5bd14f71427d1e84f3dd0314c0f7b2291e5b200ac8c7c3b925",
                "0x000000000000000000000000f488ba1fe8b0523e863dda6a5f7d19f2bac00188",
                "0x000000000000000000000000d030bfc9649af3f008f8465427ffffab2ddd20d7"
              ],
              "data": "0x0000000000000000000000000000000000000000000000000de0b6b3a7640000",
              "blockHash": "0x3e25a3809e5ec1662108820c5c35ad239d66df3b75a1d06d1a61d96999cadb3a",
              "blockNumber": "0x78d582e",
              "transactionHash": "0xd82319c0b7afe04f83d177fbb86fc9808dcc6c47ef92079f27fd0faa2dd32704",
              "transactionIndex": "0x1",
              "logIndex": "0x0",
              "removed": false
            }
          ],
          "logsBloom": "0x00000000000000000000000000000000000000000000000000000000000000000000000000000000000000000000000200000000000000004000000000200000000000000000000000000000000000000000000000000000400000000000000000000000000002000000000000000000000000000000000000000000000000000000000000000000000000000000000000000000000000000000000000000000020000000000000000000000000000000000001000000000000000000004000000000000000000000000000000000000000000000008000001000000000000000010040000000000000000000000000000000000000000000000000000000000",
          "type": "0x2",
          "transactionHash": "0xd82319c0b7afe04f83d177fbb86fc9808dcc6c47ef92079f27fd0faa2dd32704",
          "transactionIndex": "0x1",
          "blockHash": "0x3e25a3809e5ec1662108820c5c35ad239d66df3b75a1d06d1a61d96999cadb3a",
          "blockNumber": "0x78d582e",
          "gasUsed": "0xb44b",
          "effectiveGasPrice": "0x5f5e100",
          "from": "0xf488ba1fe8b0523e863dda6a5f7d19f2bac00188",
          "to": "0xa0f7ae56e24a269f71bbf1bf3deb5b1e741492c9",
          "contractAddress": null
        },
        {
          "status": "0x1",
          "cumulativeGasUsed": "0x46368",
          "logs": [
            {
              "address": "0xa0f7ae56e24a269f71bbf1bf3deb5b1e741492c9",
              "topics": [
                "0xddf252ad1be2c89b69c2b068fc378daa952ba7f163c4a11628f55a4df523b3ef",
                "0x000000000000000000000000f488ba1fe8b0523e863dda6a5f7d19f2bac00188",
                "0x000000000000000000000000d030bfc9649af3f008f8465427ffffab2ddd20d7"
              ],
              "data": "0x0000000000000000000000000000000000000000000000000de0b6b3a7640000",
              "blockHash": "0x4f3d5913f5dbcbc0bd8f4250bdf33191b2272265d58b811ba142f6825993d7c9",
              "blockNumber": "0x78d5831",
              "transactionHash": "0x71af0f051e8f395879b4c84782d1c51c6b75317a414baef911104fe0c30543ed",
              "transactionIndex": "0x1",
              "logIndex": "0x0",
              "removed": false
            },
            {
              "address": "0xd030bfc9649af3f008f8465427ffffab2ddd20d7",
              "topics": [
                "0x1f6ba6056f778bc194a8335ecc8948fd546965262dc38d74ff5c5e08e93c5635"
              ],
              "data": "0x000000000000000000000000f488ba1fe8b0523e863dda6a5f7d19f2bac00188000000000000000000000000f488ba1fe8b0523e863dda6a5f7d19f2bac00188000000000000000000000000a0f7ae56e24a269f71bbf1bf3deb5b1e741492c90000000000000000000000006e56e17a9ac93bd42f5c02613d24025327d0497e00000000000000000000000000000000000000000000000000000000000000000000000000000000000000000000000000000000000000000de0b6b3a76400000000000000000000000000000000000000000000000000000de0b6b3a76400000000000000000000000000000000000000000000000000000000000067bbc89d0000000000000000000000000000000000000000000000000000000067bbe5210000000000000000000000000000000000000000000000000000000000009d270000000000000000000000000000000000000000000000000000000000009ce10000000000000000000000000000000000000000000000000000000000000000e7cb690845466316809059322fe04631f7dea4e30fde732e627cfd4dae4183de",
              "blockHash": "0x4f3d5913f5dbcbc0bd8f4250bdf33191b2272265d58b811ba142f6825993d7c9",
              "blockNumber": "0x78d5831",
              "transactionHash": "0x71af0f051e8f395879b4c84782d1c51c6b75317a414baef911104fe0c30543ed",
              "transactionIndex": "0x1",
              "logIndex": "0x1",
              "removed": false
            }
          ],
          "logsBloom": "0x00000000000000000000000000000000000000000000000000000000000000000000000000000000000000000000000200000000000000004000000000000000000000000000000000000008000000000000000000000000400000000000000000000000000002000000000000000000000000000000000000000010000000080000000000000000000000000000000000004000000000000000000000000000000080000000000000000000000000000100001000000000000000000004000000000002000000000000000000000000000000000008000001000000000000000000040000000000000000000100000000000040000000000000000000000000",
          "type": "0x2",
          "transactionHash": "0x71af0f051e8f395879b4c84782d1c51c6b75317a414baef911104fe0c30543ed",
          "transactionIndex": "0x1",
          "blockHash": "0x4f3d5913f5dbcbc0bd8f4250bdf33191b2272265d58b811ba142f6825993d7c9",
          "blockNumber": "0x78d5831",
          "gasUsed": "0x46368",
          "effectiveGasPrice": "0x5f5e100",
          "from": "0xf488ba1fe8b0523e863dda6a5f7d19f2bac00188",
          "to": "0xd030bfc9649af3f008f8465427ffffab2ddd20d7",
          "contractAddress": null
        }
      ],
      "libraries": [],
      "pending": [],
      "returns": {},
      "timestamp": 1740359954,
      "chain": 421614,
      "commit": "4e93677"
    },
    {
      "transactions": [
        {
          "hash": "0x397151905d0cc67b958423e82209d72bab975c2f93451bf7315eabde6e2b1b2a",
          "transactionType": "CALL",
          "contractName": null,
          "contractAddress": "0x6e56e17a9ac93bd42f5c02613d24025327d0497e",
          "function": "mint(address,uint256)",
          "arguments": [
            "0x1Fd4e198bAF6e6d035eB065Ec154c91AC73F5b75",
            "100000000000000000000"
          ],
          "transaction": {
            "from": "0x1fd4e198baf6e6d035eb065ec154c91ac73f5b75",
            "to": "0x6e56e17a9ac93bd42f5c02613d24025327d0497e",
            "gas": "0xb800",
            "value": "0x0",
            "input": "0x40c10f190000000000000000000000001fd4e198baf6e6d035eb065ec154c91ac73f5b750000000000000000000000000000000000000000000000056bc75e2d63100000",
            "nonce": "0x70",
            "chainId": "0xaa36a7"
          },
          "additionalContracts": [],
          "isFixedGasLimit": false
        },
        {
          "hash": "0x8b6162b917bd5ea5b8b7891312f16aa736d37190c27a64c455c83086c319c042",
          "transactionType": "CALL",
          "contractName": null,
          "contractAddress": "0x6e56e17a9ac93bd42f5c02613d24025327d0497e",
          "function": "approve(address,uint256)",
          "arguments": [
            "0xEA631c222514F6d971571298fd67b83eBd76936c",
            "100000000000000000000"
          ],
          "transaction": {
            "from": "0x1fd4e198baf6e6d035eb065ec154c91ac73f5b75",
            "to": "0x6e56e17a9ac93bd42f5c02613d24025327d0497e",
            "gas": "0xf917",
            "value": "0x0",
            "input": "0x095ea7b3000000000000000000000000ea631c222514f6d971571298fd67b83ebd76936c0000000000000000000000000000000000000000000000056bc75e2d63100000",
            "nonce": "0x71",
            "chainId": "0xaa36a7"
          },
          "additionalContracts": [],
          "isFixedGasLimit": false
        },
        {
          "hash": "0x55da4861a03e8e55b72a8d684080370cdebf2e97e82d92f12f211f047f6650c2",
          "transactionType": "CALL",
          "contractName": null,
          "contractAddress": "0xea631c222514f6d971571298fd67b83ebd76936c",
          "function": "fill((address,address,bytes,uint256),(address,address,address,address,address,uint256,uint256,uint256,uint256,uint32,uint32,uint16))",
          "arguments": [
            "(0x0000000000000000000000000000000000000000, 0x6e56e17a9Ac93bd42F5C02613D24025327d0497E, 0x, 0)",
            "(0xf488bA1fe8b0523E863ddA6a5f7d19F2bAC00188, 0xf488bA1fe8b0523E863ddA6a5f7d19F2bAC00188, 0xA0F7Ae56E24A269f71BBF1BF3DeB5b1E741492C9, 0x6e56e17a9Ac93bd42F5C02613D24025327d0497E, 0x0000000000000000000000000000000000000000, 1000000000000000000, 1000000000000000000, 1740359837, 1740367137, 40231, 40161, 0)"
          ],
          "transaction": {
            "from": "0x1fd4e198baf6e6d035eb065ec154c91ac73f5b75",
            "to": "0xea631c222514f6d971571298fd67b83ebd76936c",
            "gas": "0x2bc5c",
            "value": "0x0",
            "input": "0x4719e91500000000000000000000000000000000000000000000000000000000000001a0000000000000000000000000f488ba1fe8b0523e863dda6a5f7d19f2bac00188000000000000000000000000f488ba1fe8b0523e863dda6a5f7d19f2bac00188000000000000000000000000a0f7ae56e24a269f71bbf1bf3deb5b1e741492c90000000000000000000000006e56e17a9ac93bd42f5c02613d24025327d0497e00000000000000000000000000000000000000000000000000000000000000000000000000000000000000000000000000000000000000000de0b6b3a76400000000000000000000000000000000000000000000000000000de0b6b3a76400000000000000000000000000000000000000000000000000000000000067bbc89d0000000000000000000000000000000000000000000000000000000067bbe5210000000000000000000000000000000000000000000000000000000000009d270000000000000000000000000000000000000000000000000000000000009ce1000000000000000000000000000000000000000000000000000000000000000000000000000000000000000000000000000000000000000000000000000000000000000000000000000000006e56e17a9ac93bd42f5c02613d24025327d0497e000000000000000000000000000000000000000000000000000000000000008000000000000000000000000000000000000000000000000000000000000000000000000000000000000000000000000000000000000000000000000000000000",
            "nonce": "0x72",
            "chainId": "0xaa36a7"
          },
          "additionalContracts": [],
          "isFixedGasLimit": false
        },
        {
          "hash": "0x74b1de1677e792aeeedc39c02b14d8c8914d4ee09d85ba9b6935b64010c94f84",
          "transactionType": "CALL",
          "contractName": null,
          "contractAddress": "0xea631c222514f6d971571298fd67b83ebd76936c",
          "function": "settle(uint32,address,bytes)",
          "arguments": [
            "40231",
            "0x1Fd4e198bAF6e6d035eB065Ec154c91AC73F5b75",
            "0x00030100110100000000000000000000000000030d40"
          ],
          "transaction": {
            "from": "0x1fd4e198baf6e6d035eb065ec154c91ac73f5b75",
            "to": "0xea631c222514f6d971571298fd67b83ebd76936c",
            "gas": "0x52162",
            "value": "0x16345785d8a0000",
            "input": "0x2c85455b0000000000000000000000000000000000000000000000000000000000009d270000000000000000000000001fd4e198baf6e6d035eb065ec154c91ac73f5b750000000000000000000000000000000000000000000000000000000000000060000000000000000000000000000000000000000000000000000000000000001600030100110100000000000000000000000000030d4000000000000000000000",
            "nonce": "0x73",
            "chainId": "0xaa36a7"
          },
          "additionalContracts": [],
          "isFixedGasLimit": false
        }
      ],
      "receipts": [
        {
          "status": "0x1",
          "cumulativeGasUsed": "0x12adac4",
          "logs": [
            {
              "address": "0x6e56e17a9ac93bd42f5c02613d24025327d0497e",
              "topics": [
                "0xddf252ad1be2c89b69c2b068fc378daa952ba7f163c4a11628f55a4df523b3ef",
                "0x0000000000000000000000000000000000000000000000000000000000000000",
                "0x0000000000000000000000001fd4e198baf6e6d035eb065ec154c91ac73f5b75"
              ],
              "data": "0x0000000000000000000000000000000000000000000000056bc75e2d63100000",
              "blockHash": "0x549cdc7092d0a305b9dc25dd55721494704cde525caa718c3e7868f40c30e8bf",
              "blockNumber": "0x769948",
              "transactionHash": "0x397151905d0cc67b958423e82209d72bab975c2f93451bf7315eabde6e2b1b2a",
              "transactionIndex": "0x9b",
              "logIndex": "0xdc",
              "removed": false
            }
          ],
          "logsBloom": "0x00000000020000020000000000000000000000000000000000000000000000000000000000000000000000000000000000000000000000000000000000000000800000000000000000000008040000000000000000000000000000000000000000000000020000000000000000000800000000000000000000000010000000000000004000000000000000000000000000000000000000000000000000000000000000000000000000000000000000000000000000000000000000000000000000000002000000000000000000000000000000000000000000000000000020000000000000000000000000000000000000000000000004000000000000000000",
          "type": "0x2",
          "transactionHash": "0x397151905d0cc67b958423e82209d72bab975c2f93451bf7315eabde6e2b1b2a",
          "transactionIndex": "0x9b",
          "blockHash": "0x549cdc7092d0a305b9dc25dd55721494704cde525caa718c3e7868f40c30e8bf",
          "blockNumber": "0x769948",
          "gasUsed": "0x8537",
          "effectiveGasPrice": "0x1599ee66",
          "from": "0x1fd4e198baf6e6d035eb065ec154c91ac73f5b75",
          "to": "0x6e56e17a9ac93bd42f5c02613d24025327d0497e",
          "contractAddress": null
        },
        {
          "status": "0x1",
          "cumulativeGasUsed": "0x9983b6",
          "logs": [
            {
              "address": "0x6e56e17a9ac93bd42f5c02613d24025327d0497e",
              "topics": [
                "0x8c5be1e5ebec7d5bd14f71427d1e84f3dd0314c0f7b2291e5b200ac8c7c3b925",
                "0x0000000000000000000000001fd4e198baf6e6d035eb065ec154c91ac73f5b75",
                "0x000000000000000000000000ea631c222514f6d971571298fd67b83ebd76936c"
              ],
              "data": "0x0000000000000000000000000000000000000000000000056bc75e2d63100000",
              "blockHash": "0xb708c736f419b8b9ca0ac391cb18dc594512619b55a66fb98484eee1b9a84a85",
              "blockNumber": "0x769949",
              "transactionHash": "0x8b6162b917bd5ea5b8b7891312f16aa736d37190c27a64c455c83086c319c042",
              "transactionIndex": "0x91",
              "logIndex": "0x90",
              "removed": false
            }
          ],
          "logsBloom": "0x00000000020000020000004000000000000000000000000000000000000000000000000000000000000000000000000000000000000000000000000000200000800000000000000000000000040000000000000000000000000000000000000000000000000000000000000000000000000000000000000000000000000000000000004000000000000000000000002000000000000000000000000000000000020000000000000000000000000000000000000000000000000000000000000000000000000000000000000000000000000000000000000000000000000000000010000000000000000000000000800000000000000004000000000000000000",
          "type": "0x2",
          "transactionHash": "0x8b6162b917bd5ea5b8b7891312f16aa736d37190c27a64c455c83086c319c042",
          "transactionIndex": "0x91",
          "blockHash": "0xb708c736f419b8b9ca0ac391cb18dc594512619b55a66fb98484eee1b9a84a85",
          "blockNumber": "0x769949",
          "gasUsed": "0xb457",
          "effectiveGasPrice": "0x1626d441",
          "from": "0x1fd4e198baf6e6d035eb065ec154c91ac73f5b75",
          "to": "0x6e56e17a9ac93bd42f5c02613d24025327d0497e",
          "contractAddress": null
        },
        {
          "status": "0x1",
          "cumulativeGasUsed": "0x84a123",
          "logs": [
            {
              "address": "0x6e56e17a9ac93bd42f5c02613d24025327d0497e",
              "topics": [
                "0xddf252ad1be2c89b69c2b068fc378daa952ba7f163c4a11628f55a4df523b3ef",
                "0x0000000000000000000000001fd4e198baf6e6d035eb065ec154c91ac73f5b75",
                "0x000000000000000000000000f488ba1fe8b0523e863dda6a5f7d19f2bac00188"
              ],
              "data": "0x0000000000000000000000000000000000000000000000000de0b6b3a7640000",
              "blockHash": "0xb25567267d67a6d7e1ecce7f167e3fd606275a697f3ac9ebc602ed59bf346b2b",
              "blockNumber": "0x76994a",
              "transactionHash": "0x55da4861a03e8e55b72a8d684080370cdebf2e97e82d92f12f211f047f6650c2",
              "transactionIndex": "0x7c",
              "logIndex": "0x81",
              "removed": false
            },
            {
              "address": "0xea631c222514f6d971571298fd67b83ebd76936c",
              "topics": [
                "0xb74c1459cd8a27a95e7f6d55371a6c4906228ff3ea317332ca336712f2161c4c"
              ],
              "data": "0x000000000000000000000000f488ba1fe8b0523e863dda6a5f7d19f2bac00188000000000000000000000000f488ba1fe8b0523e863dda6a5f7d19f2bac00188000000000000000000000000a0f7ae56e24a269f71bbf1bf3deb5b1e741492c90000000000000000000000006e56e17a9ac93bd42f5c02613d24025327d0497e00000000000000000000000000000000000000000000000000000000000000000000000000000000000000000000000000000000000000000de0b6b3a76400000000000000000000000000000000000000000000000000000de0b6b3a76400000000000000000000000000000000000000000000000000000000000067bbc89d0000000000000000000000000000000000000000000000000000000067bbe5210000000000000000000000000000000000000000000000000000000000009d270000000000000000000000000000000000000000000000000000000000009ce10000000000000000000000000000000000000000000000000000000000000000e7cb690845466316809059322fe04631f7dea4e30fde732e627cfd4dae4183de",
              "blockHash": "0xb25567267d67a6d7e1ecce7f167e3fd606275a697f3ac9ebc602ed59bf346b2b",
              "blockNumber": "0x76994a",
              "transactionHash": "0x55da4861a03e8e55b72a8d684080370cdebf2e97e82d92f12f211f047f6650c2",
              "transactionIndex": "0x7c",
              "logIndex": "0x82",
              "removed": false
            }
          ],
          "logsBloom": "0x00000000020400020000000000000000000000000000000000000000000200000000000000000000000000000000000000000000000000000000000000000000800000000000000000000008040000000000000000000000400000000000000000000000000000000000000000000000000000000000000000000010000000000000004000000000000000000000000000000000000000000000000000000000000000000000000000000000000000000000001000000000000000008000000000000002000000000000000000000080000010000000000000000000100000000000040000000000000000000000000000000000000004000000000000000000",
          "type": "0x2",
          "transactionHash": "0x55da4861a03e8e55b72a8d684080370cdebf2e97e82d92f12f211f047f6650c2",
          "transactionIndex": "0x7c",
          "blockHash": "0xb25567267d67a6d7e1ecce7f167e3fd606275a697f3ac9ebc602ed59bf346b2b",
          "blockNumber": "0x76994a",
          "gasUsed": "0x1fb0d",
          "effectiveGasPrice": "0x1582094e",
          "from": "0x1fd4e198baf6e6d035eb065ec154c91ac73f5b75",
          "to": "0xea631c222514f6d971571298fd67b83ebd76936c",
          "contractAddress": null
        },
        {
          "status": "0x1",
          "cumulativeGasUsed": "0x927ec2",
          "logs": [
            {
              "address": "0xcc1ae8cf5d3904cef3360a9532b477529b177cce",
              "topics": [
                "0x61ed099e74a97a1d7f8bb0952a88ca8b7b8ebd00c126ea04671f92a81213318a"
              ],
              "data": "0x000000000000000000000000718b92b5cb0a5552039b593faf724d182a881eda00000000000000000000000000000000000000000000000000005ac03624bfc8",
              "blockHash": "0x3b1f49ef3008b3c93d89dd9bd02a3745f092739c50a5c4aeea7cd02331ed0bbf",
              "blockNumber": "0x76994b",
              "transactionHash": "0x74b1de1677e792aeeedc39c02b14d8c8914d4ee09d85ba9b6935b64010c94f84",
              "transactionIndex": "0x71",
              "logIndex": "0x7e",
              "removed": false
            },
            {
              "address": "0xcc1ae8cf5d3904cef3360a9532b477529b177cce",
              "topics": [
                "0x07ea52d82345d6e838192107d8fd7123d9c2ec8e916cd0aad13fd2b60db24644"
              ],
              "data": "0x000000000000000000000000000000000000000000000000000000000000006000000000000000000000000000000000000000000000000000000000000000a000000000000000000000000000000000000000000000000000000000000000c000000000000000000000000000000000000000000000000000000000000000010000000000000000000000008eebf8b423b73bfca51a1db4b7354aa0bfca91930000000000000000000000000000000000000000000000000000000000000000000000000000000000000000000000000000000000000000000000000000000100000000000000000000000000000000000000000000000000000c2c80d35d30",
              "blockHash": "0x3b1f49ef3008b3c93d89dd9bd02a3745f092739c50a5c4aeea7cd02331ed0bbf",
              "blockNumber": "0x76994b",
              "transactionHash": "0x74b1de1677e792aeeedc39c02b14d8c8914d4ee09d85ba9b6935b64010c94f84",
              "transactionIndex": "0x71",
              "logIndex": "0x7f",
              "removed": false
            },
            {
              "address": "0x6edce65403992e310a62460808c4b910d972f10f",
              "topics": [
                "0x1ab700d4ced0c005b164c0f789fd09fcbb0156d4c2041b8a3bfbcd961cd1567f"
              ],
              "data": "0x00000000000000000000000000000000000000000000000000000000000000600000000000000000000000000000000000000000000000000000000000000140000000000000000000000000cc1ae8cf5d3904cef3360a9532b477529b177cce00000000000000000000000000000000000000000000000000000000000000a801000000000000000200009ce1000000000000000000000000ea631c222514f6d971571298fd67b83ebd76936c00009d27000000000000000000000000d030bfc9649af3f008f8465427ffffab2ddd20d735430bf2fa97a18c3b642bb414db5c0659e7e93057691dedc5d23c880588560c001fd4e198baf6e6d035eb065ec154c91ac73f5b750001e7cb690845466316809059322fe04631f7dea4e30fde732e627cfd4dae4183de000000000000000000000000000000000000000000000000000000000000000000000000000000000000000000000000000000000000001600030100110100000000000000000000000000030d4000000000000000000000",
              "blockHash": "0x3b1f49ef3008b3c93d89dd9bd02a3745f092739c50a5c4aeea7cd02331ed0bbf",
              "blockNumber": "0x76994b",
              "transactionHash": "0x74b1de1677e792aeeedc39c02b14d8c8914d4ee09d85ba9b6935b64010c94f84",
              "transactionIndex": "0x71",
              "logIndex": "0x80",
              "removed": false
            },
            {
              "address": "0xea631c222514f6d971571298fd67b83ebd76936c",
              "topics": [
                "0xfa636c2e3db9c4a50080ee4305952c55a6b6c200807847530dc5950fed59d05a"
              ],
              "data": "0x0000000000000000000000000000000000000000000000000000000000009d270000000000000000000000001fd4e198baf6e6d035eb065ec154c91ac73f5b7500000000000000000000000000000000000000000000000000000000000000600000000000000000000000000000000000000000000000000000000000000037001fd4e198baf6e6d035eb065ec154c91ac73f5b750001e7cb690845466316809059322fe04631f7dea4e30fde732e627cfd4dae4183de000000000000000000",
              "blockHash": "0x3b1f49ef3008b3c93d89dd9bd02a3745f092739c50a5c4aeea7cd02331ed0bbf",
              "blockNumber": "0x76994b",
              "transactionHash": "0x74b1de1677e792aeeedc39c02b14d8c8914d4ee09d85ba9b6935b64010c94f84",
              "transactionIndex": "0x71",
              "logIndex": "0x81",
              "removed": false
            }
          ],
          "logsBloom": "0x00000000000400000000000000000000000000000000000000000000000100000000000000000000200000000000000000000000000000000000000000000000000000000000002001000000000000000000000000000000000000000000000000000000000000008200000000000000000000000000000000000000000000000000000000000020000000080000000000000000000000000000000000000000000000008000000000100000000000000000200000400000000440008000000000000000000000000000000000000000000010080000000000000000000000000000040000000000000000000000002000000000000000000000000000000020",
          "type": "0x2",
          "transactionHash": "0x74b1de1677e792aeeedc39c02b14d8c8914d4ee09d85ba9b6935b64010c94f84",
          "transactionIndex": "0x71",
          "blockHash": "0x3b1f49ef3008b3c93d89dd9bd02a3745f092739c50a5c4aeea7cd02331ed0bbf",
          "blockNumber": "0x76994b",
          "gasUsed": "0x3820b",
          "effectiveGasPrice": "0x15225da4",
          "from": "0x1fd4e198baf6e6d035eb065ec154c91ac73f5b75",
          "to": "0xea631c222514f6d971571298fd67b83ebd76936c",
          "contractAddress": null
        }
      ],
      "libraries": [],
      "pending": [],
      "returns": {},
      "timestamp": 1740359955,
      "chain": 11155111,
      "commit": "4e93677"
    }
  ],
  "timestamp": 1740360001
}